:100000000C942A000C9447000C9447000C94470071
:100010000C9447000C9447000C9447000C94470044
:100020000C9447000C9447000C9447000C94470034
:100030000C9447000C9447000C9447000C94470024
:100040000C9447000C9447000C9447000C94470014
:100050000C94470011241FBECFE5D8E0DEBFCDBF12
:1000600013E0A0E6B0E0E2E1FCE102C005900D92F1
:10007000AE36B107D9F717E0AEE6B3E001C01D9286
:10008000AC35B107E1F70E94A50B0C94070E0C9458
:10009000000080E487B987E886B9089516B817B8D4
:1000A000089587B9369A349BFECF349A24B135B17E
:1000B000C901089587B9369A349BFECF349A84B12A
:1000C00095B1969587959695879508959C01E199A8
:1000D000FECF3FBB2EBBE09A8DB308959C01E19902
:1000E000FECF3FBB2EBB6DBB0FB6F894E29AE19AF0
:1000F0000FBE089511BA8FE082BB20E044E050E0CB
:1001000061E070E0CB01042E02C0880F991F0A94B1
:10011000E2F781BB80B38E30E1F08D3041F18B305E
:10012000B1F1873009F443C02F5F4F5F5F4F243038
:1001300049F7823009F44BC0833018F4813039F428
:1001400046C0833009F443C0843009F440C08FE2D4
:1001500008952130E9F1223011F480E3089523302D
:1001600011F483E20895222391F584E40895213067
:1001700011F487E30895223011F488E308952330C1
:1001800011F489E30895222311F583E408952130C1
:1001900011F484E30895223011F485E308952330A7
:1001A00011F486E30895222391F482E40895213026
:1001B00011F481E30895223011F482E3089523308D
:1001C00011F483E30895222311F481E4089508953E
:1001D0008AE20895C398B699FECF8BE08FB9779BDA
:1001E000FECF86E08FB9779BFECFC39AC398B699AE
:1001F000FECF8CE08FB9779BFECF1FB8779BFECFE9
:10020000C39AC398B699FECF8DE08FB9779BFECF86
:100210008DE58FB9779BFECFC39AC398B699FECF71
:100220008EE08FB9779BFECF83E98FB9779BFECFA6
:10023000C39AC398B699FECF8FE08FB9779BFECF54
:1002400081EB8FB9779BFECFC39AC398B699FECF47
:1002500080E18FB9779BFECF8DE28FB9779BFECF80
:10026000C39AC398B699FECF81E18FB9779BFECF31
:100270008BE38FB9779BFECFC39AC398B699FECF15
:1002800082E18FB9779BFECF83E78FB9779BFECF53
:10029000C39AC398B699FECF83E18FB9779BFECFFF
:1002A00082E28FB9779BFECFC39AC398B699FECFEF
:1002B00084E18FB9779BFECF88EF8FB9779BFECF14
:1002C000C39AC398B699FECF8AE08FB9779BFECFC9
:1002D00083E08FB9779BFECFC39AC398B699FECFC0
:1002E00085E18FB9779BFECF1FB8779BFECFC39A6E
:1002F000C398B699FECF81E28FB9779BFECF86EB8C
:100300008FB9779BFECFC39AC398B699FECF82E28E
:100310008FB9779BFECF80E18FB9779BFECFC39AD1
:10032000C398B699FECF88E18FB9779BFECF88E15D
:100330008FB9779BFECFC39AC398B699FECF89E158
:100340008FB9779BFECF8DE18FB9779BFECFC39A94
:10035000C398B699FECF8AE18FB9779BFECF8CE127
:100360008FB9779BFECFC39AC398B699FECF8BE126
:100370008FB9779BFECF87EC8FB9779BFECFC39A5F
:10038000C398B699FECF8CE18FB9779BFECF1FB88B
:10039000779BFECFC39AC398B699FECF8DE18FB9F4
:1003A000779BFECF82EB8FB9779BFECFC39AC39822
:1003B000B699FECF83E28FB9779BFECF8AEE8FB9D5
:1003C000779BFECFC39AC398B699FECF84E28FB9CC
:1003D000779BFECF8AE08FB9779BFECFC39AC398F5
:1003E000B699FECF85E28FB9779BFECF1FB8779B7A
:1003F000FECFC39AC398B699FECF86E28FB9779B9A
:10040000FECF81E18FB9779BFECFC39AC398B6998F
:10041000FECF89E28FB9779BFECF89E58FB9779BB5
:10042000FECFC39AC398B699FECF8CE28FB9779B63
:10043000FECF88E88FB9779BFECFC39AC398B69951
:10044000FECF8DE28FB9779BFECF81E38FB9779B8B
:10045000FECFC39AC398B699FECF8EE28FB9779B31
:10046000FECF8BE08FB9779BFECFC39AC398B69926
:10047000FECF83E08FB9779BFECF87E08FB9779B64
:10048000FECFC39AC398B699FECF1FB8779BFECF15
:1004900086E08FB9779BFECFC39AC398B699FECFFB
:1004A00082E08FB9779BFECF81E08FB9779BFECF3B
:1004B000C39AC398B699FECF87E08FB9779BFECFDA
:1004C00084E08FB9779BFECFC39AC398B699FECFCD
:1004D00088E08FB9779BFECF85E08FB9779BFECF01
:1004E000C39AC398B699FECF89E08FB9779BFECFA8
:1004F0001FB8779BFECFC39AC398B699FECF86E00C
:100500008FB9779BFECF8FEF8FB9779BFECFC39AC2
:100510000895982FC398B699FECF8AE08FB9779B3C
:10052000FECF9FB9779BFECFC39A0895982FC398AB
:10053000B699FECF89E08FB9779BFECF9FB9779BA5
:10054000FECFC39A089583E083BF19BE0895BB9A76
:10055000BC9ABD9ABE98BF9A80E58DB98EB18EB90E
:100560000895C3988FB9779BFECFC39A0895BC981E
:10057000BD98BE9ABF9880E48DB90895779BFECF51
:100580008FB108958FB9779BFECF08958FB9779B70
:10059000FECF8FB10895779BFECF8FB10895C3989A
:1005A000B699FECF80688FB9779BFECF8FB9779BC6
:1005B000FECF8FB1C39A0895C398B699FECF806CD1
:1005C0008FB9779BFECF8FB9779BFECF8FB1C39A40
:1005D0000895C398B699FECF8F778FB9779BFECFDA
:1005E0006FB9779BFECFC39A0895C398B699FECF93
:1005F000582F506C5FB9779BFECFFB0190E006C08F
:100600005FB9779BFECF8FB181939F5F9417C0F343
:10061000C39A0895C398B699FECF80648FB9779B2B
:10062000FECFFB0190E006C080818FB9779BFECFA3
:100630009F5F31969417C0F3C39A0895C398B699F3
:10064000FECF8FB9779BFECFC39A08950F931F9368
:100650009C01462FC398B699FECF8BE38FB9779B49
:10066000FECFC39A00E41CE9F8013197F1F78FE35C
:10067000B9010E940A03C8010197F1F7C398B6991E
:10068000FECF85E38FB9779BFECFC39A80E49CE9C8
:100690000197F1F712BE03C082B78F3F41F08AE3A2
:1006A0000E94DC0290E08F779070892BA9F71F9150
:1006B0000F910895C398B699FECF8EE38FB9779BBB
:1006C000FECF8FEF8FB9779BFECFC39AC398B699B1
:1006D000FECF82E28FB9779BFECF80E18FB9779B07
:1006E000FECFC39A8AEF90E020E931E0F90131971B
:1006F000F1F70197D9F785E08093510781E597E0FD
:1007000066E00E94260308951F93CF93DF93EC01C8
:10071000162F8BE30E94DC0290E08F779070892B7C
:1007200069F485E30E94DC028D30B9F1C398B69973
:10073000FECF84E38FB9779BFECF2EC012BE0BC0D5
:1007400082B78F3F41F4C398B699FECF8AE38FB941
:10075000779BFECF21C085E30E94DC028F71813040
:1007600079F78FE30E94CF02811779F48FE3BE01FE
:10077000412F0E94F502C398B699FECF8AE38FB944
:10078000779BFECFC39A81E009C0C398B699FECF8C
:100790008AE38FB9779BFECFC39A80E0DF91CF9138
:1007A0001F91089581E397E065E00E948403811121
:1007B00081E00895C398B699FECF86E38FB9779B01
:1007C000FECFC39AC39A8AE18A95F1F7C39885E36D
:1007D0008A95F1F7C39A85ED8A95F1F7C398B69992
:1007E000FECFC398B699FECF80E38FB9779BFECF3B
:1007F000C39AC39A089583E083BF19BEBB9ABC9A7B
:10080000BD9ABE98BF9A80E58DB98EB18EB90E940F
:10081000DA030E94EA00C398B699FECF8EE38FB93F
:10082000779BFECF8FEF8FB9779BFECFC39A08954A
:1008300085E30E94DC028093950690E08F719070B2
:10084000892B21F40E94DA030E94EA00089585E0D2
:1008500087B9369A349BFECF349A84B195B1909380
:1008600059078093580786E087B9369A349BFECFA4
:10087000349A84B195B190935B0780935A0787E0CF
:1008800087B9369A349BFECF349A84B195B1909350
:100890008C0480938B0408950E947A008093500703
:1008A000909150079F32C1F3933219F41092740360
:1008B00008958CE180935207909353071092540748
:1008C00010925507109256070E945A0388EB9BE03E
:1008D00020E931E0F9013197F1F70197D9F708954F
:1008E000CF93DF930E947A00809350078091500746
:1008F0008F32C1F38033B9F48CE08093520780E2E9
:100900008093530710925407109255071092560780
:100910000E945A0388EB9BE020E931E0F90131970E
:10092000F1F70197D9F780915007813309F045C05D
:10093000109275038BE08093520710925307109228
:10094000540710925507109256070E945A0388EBDD
:100950009BE020E931E0F9013197F1F70197D9F7F0
:100960000E947A0080935007C0E9D1E022C08091B4
:1009700075038F5F809375030E947A008093500700
:1009800088EE93E0FE013197F1F70197D9F7809156
:1009900075038B3070F08CEA8093520710925307E6
:1009A0001092540710925507109256070E945A034E
:1009B00004C0809150078133D1F280915007823377
:1009C000B9F48CE28093520781E28093530710922E
:1009D000540710925507109256070E945A0388EB4D
:1009E0009BE020E931E0F9013197F1F70197D9F760
:1009F000809150078333B9F48CE28093520785E2EB
:100A0000809353071092540710925507109256077F
:100A10000E945A0388EB9BE020E931E0F90131970D
:100A2000F1F70197D9F7809150078433B9F48CE23C
:100A3000809352078EE280935307109254071092CE
:100A40005507109256070E945A0388EB9BE020E955
:100A500031E0F9013197F1F70197D9F7809150070B
:100A60008533B1F48CE28093520780935307109240
:100A7000540710925507109256070E945A0388EBAC
:100A80009BE020E931E0F9013197F1F70197D9F7BF
:100A9000809150078633B9F48CE2809352078FE33C
:100AA00080935307109254071092550710925607DF
:100AB0000E945A0388EB9BE020E931E0F90131976D
:100AC000F1F70197D9F7809150078733B9F48CE299
:100AD0008093520786E28093530710925407109236
:100AE0005507109256070E945A0388EB9BE020E9B5
:100AF00031E0F9013197F1F70197D9F7809150076B
:100B00008833B9F48CE2809352078DE280935307C7
:100B10001092540710925507109256070E945A03DC
:100B200088EB9BE020E931E0F9013197F1F701977B
:100B3000D9F780915007893319F41092730304C0D8
:100B4000833211F410927403DF91CF9108956F9264
:100B50007F928F929F92AF92BF92CF92DF92EF924D
:100B6000FF920F931F93CF93DF93A4E8B3E060E06D
:100B700040E050E04AC0828193819501281B390BE7
:100B800037FF03C0309521953F4F8081918134011B
:100B9000681A790AC30177FE03C0909581959F4F2B
:100BA000280F848195813601681A790AC30177FE7E
:100BB00003C0909581959F4F280F868197813701BB
:100BC000681A790AC30177FE03C0909581959F4FFB
:100BD000280F808591853801681A790AC30177FE4C
:100BE00003C0909581959F4F280F620F68831982EB
:100BF0003A96E49626E0EB3FF20709F0BCCF4F5F50
:100C00005F4F1A964A315105D9F08D909C901197FB
:100C10001296AD90BC9013971496CD90DC901597DA
:100C20001696ED90FC90179718960D911C911997B8
:100C3000E7E9F6E0EA01CC0FDD1FC357DB4F9BCF9E
:100C4000009191056091700370917103A3E9B5E083
:100C5000E0E041E050E02D913C911197802F90E031
:100C60002817390740F4022F5093FE064093FD06E3
:100C7000E0E060E070E0802F90E02817390751F441
:100C8000FB01EE0FFF1FE350F94F518340836F5F6D
:100C90007F4FE1E012964F5F5F4F4A315105D9F621
:100CA0006093700370937103EE2331F0A0E030E0A5
:100CB0001AE2C02FD0E02BC06091FD067091FE06B5
:100CC000FB01EE0FFF1FE357FB4F30E020E0402F0A
:100CD00050E0808191814817590708F02F5F3F5FEE
:100CE000F4963A30B1F7283020F1162F1F5922C060
:100CF00080819181C817D90708F03F5F2F5FF49674
:100D00002A30B1F7383010F0142F1F59AF5FEA2F97
:100D1000F0E06E177F0770F0EE0FFF1FE350F94F02
:100D200040815181FA01EE0FFF1FE357FB4F20E096
:100D3000DFCF1AE2812F8057823030F0183621F051
:100D40001B3611F01537F9F40E942704209158073B
:100D50003091590741E02134340748F080915A0717
:100D600090915B078851914010F418E639C02851E2
:100D70003140B0F580915A0790915B078C539140B8
:100D800078F11BE62DC0812F8956823090F40E94A5
:100D90002704809158079091590781549140F8F0A9
:100DA00080915A0790915B0788519140C0F41AE6F0
:100DB00017C0143611F01A3799F40E942704809155
:100DC0005807909159078753914050F080915A07E6
:100DD00090915B078753914018F01AE701C019E61C
:100DE000812FDF91CF911F910F91FF90EF90DF90B6
:100DF000CF90BF90AF909F908F907F906F9008950D
:100E00008F929F92AF92BF92CF92DF92EF92FF921A
:100E10000F931F93CF93DF93E7E9F6E0CC24DD2413
:100E2000EE24FF2400E010E0C0E0D0E020E030E05D
:100E30008824839462E0962E53E0A52E44E0B42EDD
:100E400058C017B8369A349BFECF349A84B195B106
:100E5000E80EF91E87B8369A349BFECF349A84B1D7
:100E600095B1080F191F97B8369A349BFECF349A64
:100E700084B195B1C80FD91FA7B8369A349BFECF5D
:100E8000349A84B195B1280F391FB7B8369A349B7C
:100E9000FECF349A84B195B1C80ED91E4F5F4A3047
:100EA00081F6C7016AE070E00E94F30D71836083F0
:100EB000C8016AE070E00E94F30D73836283CE0183
:100EC0006AE070E00E94F30D75836483C9016AE0F3
:100ED00070E00E94F30D77836683C6016AE070E0DC
:100EE0000E94F30D718760873A9686E0EB3FF80722
:100EF00011F040E0A6CFDF91CF911F910F91FF90AD
:100F0000EF90DF90CF90BF90AF909F908F9008951B
:100F10001F93CF93DF930E947A008093500717E0CE
:100F200012C00E947A008093500717B9369A349BFA
:100F3000FECF349A84B195B1875D914020F08AE26A
:100F40008093500704C0809150078F3251F38091F5
:100F500050078A3271F5E7E9F6E0118210821382B8
:100F600012821582148217821682118610863A9692
:100F700086E0EB3FF80789F7E6E3F7E0119227E018
:100F8000E035F207D9F70E9400070E94A705982FC5
:100F900080938A048A3269F08CE0809352079093A0
:100FA00053071092540710925507109256070E944B
:100FB0005A0380915007873379F5E7E9F6E011820B
:100FC0001082138212821582148217821682118671
:100FD00010863A9686E0EB3FF80789F7E6E3F7E0FC
:100FE000119227E0E035F207D9F70E9400070E942E
:100FF000A705982F80938A048A3271F08CE0809341
:10100000520790529093530710925407109255072D
:10101000109256070E945A03809150078033B9F40A
:101020008CE08093520780E280935307109254071C
:1010300010925507109256070E945A0388EB9BE0C6
:1010400020E931E0F9013197F1F70197D9F7809163
:101050005007813309F045C0109275038BE08093EF
:10106000520710925307109254071092550710928E
:1010700056070E945A0388EB9BE020E931E0F90112
:101080003197F1F70197D9F70E947A0080935007C2
:10109000C0E9D1E022C0809175038F5F8093750312
:1010A0000E947A008093500788EE93E0FE0131970A
:1010B000F1F70197D9F7809175038B3070F08CEAC6
:1010C00080935207109253071092540710925507BD
:1010D000109256070E945A0304C080915007813332
:1010E000D1F280915007893319F41092730304C030
:1010F000833211F410927403DF91CF911F91089500
:10110000E7E9F6E0118210821382128215821482BE
:1011100017821682118610863A9686E0EB3FF80712
:1011200089F7E6E3F7E0119287E0E035F807D9F7B1
:10113000089581E087B9369A349BFECF349A64B122
:1011400075B170937C0360937B0382E087B9369A14
:10115000349BFECF349A44B155B150937E034093F3
:101160007D0385E087B9369A349BFECF349A24B14B
:1011700035B130937A032093790386E087B9369AA4
:10118000349BFECF349A84B195B1909378038093C9
:1011900077031092570710928303455A514020F469
:1011A0008FED80937F0302C010927F03655A7140D8
:1011B00020F48FEE8093800302C0109280032B5F97
:1011C000304027323105A0F494E0909383038FECF4
:1011D0008093520710925307909354078091800395
:1011E0008093550780917F03809356070E945A038E
:1011F0008091790390917A03835291404397B0F4A0
:1012000093E0909383038FEC80935207809157076C
:1012100080935307909354078091800380935507E0
:1012200080917F03809356070E945A03809179032F
:1012300090917A038F5591404397B0F491E0909349
:1012400083038FEC80935207809157078093530755
:1012500090935407809180038093550780917F037A
:10126000809356070E945A038091790390917A03E4
:10127000835791404D97B0F492E0909383038FECA5
:101280008093520780915707809353079093540798
:10129000809180038093550780917F038093560748
:1012A0000E945A0380917703909178038B5F90405E
:1012B0008797B0F492E0909357078FEC8093520792
:1012C0009093530780918303809354078091800308
:1012D0008093550780917F03809356070E945A039D
:1012E0008091770390917803835291404397B0F4B3
:1012F00091E0909357078FEC809352079093530798
:1013000080918303809354078091800380935507D5
:1013100080917F03809356070E945A038091770340
:10132000909178038F5591404397B0F493E0909358
:1013300057078FEC80935207909353078091830354
:1013400080935407809180038093550780917F0399
:10135000809356070E945A038091770390917803F7
:10136000835791404D97B0F494E0909357078FECDA
:10137000809352079093530780918303809354077F
:10138000809180038093550780917F038093560757
:101390000E945A038FEC80935207809157078093E5
:1013A0005307809183038093540780918003809337
:1013B000550780917F03809356070E945A030E942D
:1013C0007A0080935007833259F41092740388EBAB
:1013D0009BE020E931E0F9013197F1F70197D9F766
:1013E00008958FEF8093520710925307109254077D
:1013F00010925507109256070E945A030E947A00D5
:1014000080935007209150072F32C1F388EB9BE067
:1014100040E951E0FA013197F1F70197D9F722330A
:1014200061F0233318F42133E1F405C0233339F09C
:101430002433B9F406C091E005C092E003C093E004
:1014400001C094E0909373038FEA809352079093C6
:1014500053071092540710925507109256070E9496
:101460005A0388E99AE320E931E0F9013197F1F76D
:101470000197D9F708950E947A0080935007209130
:1014800050072F32C1F388EB9BE040E951E0FA01AD
:101490003197F1F70197D9F7233381F0243328F4FA
:1014A000213341F0223341F507C0243349F0293379
:1014B00019F51EC091E009C092E007C093E005C095
:1014C00080917303823089F494E0909374038FEBDE
:1014D0008093520790935307109254071092550728
:1014E000109256070E945A030895109274030895AB
:1014F000109274031092730308951F93823009F4BD
:101500004AC0833009F48BC0813009F0CDC010E0AF
:101510003EC0412F50E09A01220F331FCA0163E001
:10152000880F991F6A95E1F7280F391FB9016C5789
:101530007C4F205A3F4FF90180819181FB019183BB
:101540008083FA01EE0FFF1FEE0FFF1FE40FF51F60
:101550003196EE0FFF1FDF01A05ABF4F8D919C9176
:10156000EC57FC4F91838083F90184819581FB01C5
:1015700095838483F90186819781FB019783868314
:10158000F90180859185FB01918780871F5F1A3162
:1015900008F4BFCF87C010E03EC0412F50E09A0151
:1015A000220F331FCA0163E0880F991F6A95E1F784
:1015B000280F391FB9016C577C4F2C593E4FF90148
:1015C00080819181FB0191838083FA01EE0FFF1FDF
:1015D000EE0FFF1FE40FF51F3196EE0FFF1FDF0127
:1015E000AC59BE4F8D919C91EC57FC4F91838083F9
:1015F000F90184819581FB0195838483F9018681BA
:101600009781FB0197838683F90180859185FB0192
:10161000918780871F5F1A3108F4BFCF43C010E065
:101620003EC0412F50E09A01220F331FCA0163E0F0
:10163000880F991F6A95E1F7280F391FB9016C5778
:101640007C4F28593D4FF90180819181FB019183A5
:101650008083FA01EE0FFF1FEE0FFF1FE40FF51F4F
:101660003196EE0FFF1FDF01A859BD4F8D919C9160
:10167000EC57FC4F91838083F90184819581FB01B4
:1016800095838483F90186819781FB019783868303
:10169000F90180859185FB01918780871F5F1A3151
:1016A00008F4BFCF109372031F9108958AEA8093C4
:1016B0005207109253071092540710925507109238
:1016C00056070E945A030E947A0080935007209187
:1016D00050072F32C1F388EB9BE040E951E0FA015B
:1016E0003197F1F70197D9F7223361F0233391F065
:1016F000213309F581E00E947D0A8EEA809352072A
:1017000081E00FC082E00E947D0A8EEA809352073A
:1017100082E007C083E00E947D0A8EEA8093520730
:1017200083E080935307109254071092550710924C
:1017300056070E945A0380E69DE620E931E0F90150
:101740003197F1F70197D9F708952F923F924F9271
:101750005F926F927F928F929F92AF92BF92CF9241
:10176000DF92EF92FF920F931F93CF93DF9380E46A
:1017700087B987E886B90E94FB03E7E9F6E01182A2
:1017800010821382128215821482178216821186A9
:1017900010863A9626E0EB3FF20789F7E6E3F7E09A
:1017A000119287E0E035F807D9F70E94560B7FE1E8
:1017B000272EC0E9D1E00AE165E0762E54E0652EDF
:1017C00043E0542E32E0432E3324339410927403BA
:1017D0000E94F10921C080917403882379F420923A
:1017E0005207109253071092540710925507109207
:1017F00056070E945A030E943B0A0EC0813019F41A
:101800000E94880709C0823019F40E944C0404C069
:10181000833011F40E947004809173038130D9F2F7
:1018200027C080917403882381F42FE2209352070C
:1018300010925307109254071092550710925607B2
:101840000E945A030E943B0A13C0813019F40E947F
:1018500088070EC0823019F40E944C0409C08330FE
:1018600019F40E94700404C0843011F40E94990895
:10187000809173038230A9F2CCC00E947A008093D9
:10188000500712C00E947A008093500787E087B902
:10189000369A349BFECF349A84B195B1875D9140DE
:1018A00018F01093500704C0809150078F3251F305
:1018B000809150078A3261F5E7E9F6E011821082E3
:1018C0001382128215821482178216821186108664
:1018D0003A9686E0EB3FF80789F7E6E3F7E01192E6
:1018E00027E0E035F207D9F70E9400070E94A7051C
:1018F00080938A048A3251F08093760388EB9BE0D0
:10190000FE013197F1F70197D9F702C010927603E3
:1019100080917603813699F40093520730925307F1
:101920001092540710925507109256070E945A03BE
:1019300088EB9BE0FE013197F1F70197D9F7809191
:101940007603823699F4009352074092530710921F
:10195000540710925507109256070E945A0388EBBD
:101960009BE0FE013197F1F70197D9F7809176035B
:10197000843699F4009352075092530710925407FB
:1019800010925507109256070E945A0388EB9BE06D
:10199000FE013197F1F70197D9F7809176038F36E1
:1019A00099F40093520760925307109254071092D3
:1019B0005507109256070E945A0388EB9BE0FE01E0
:1019C0003197F1F70197D9F780917603893799F428
:1019D00000935207709253071092540710925507C4
:1019E000109256070E945A0388EB9BE0FE01319744
:1019F000F1F70197D9F780915007893359F4109284
:101A0000730388EB9BE0FE013197F1F70197D9F75B
:101A100001C01AE280917303833009F42ECFCCC049
:101A200085E087B9369A349BFECF349A84B195B15C
:101A30009093FC068093FB0687B8369A349BFECFC2
:101A4000349A44B155B1509389044093880420914D
:101A5000FB063091FC06C9018B5F9040CB9738F4B0
:101A600080916C0380935207B092530728C02F5582
:101A700031402133310538F480916C038093520753
:101A8000C09253071CC0CA018B5F9040CB9738F4BB
:101A900080916C03809352079092530710C04F556A
:101AA000514080916C034133510528F480935207D3
:101AB000A092530704C080935207109253071092CC
:101AC000540710925507109256070E945A030E941D
:101AD0007A0080935007893351F41092730388EB96
:101AE0009BE0FE013197F1F70197D9F717C08133D9
:101AF000A9F410936C03109352071092530710929D
:101B0000540710925507109256070E945A0388EB0B
:101B10009BE0FE013197F1F70197D9F780915007CB
:101B20008233A9F4D0926C03D092520710925307DB
:101B30001092540710925507109256070E945A03AC
:101B400088EB9BE0FE013197F1F70197D9F780917F
:101B500050078333A9F4F0926C03F092520710926D
:101B600053071092540710925507109256070E947F
:101B70005A0388EB9BE0FE013197F1F70197D9F703
:101B800080915007843349F5E0926C03E09252074C
:101B9000109253071092540710925507109256074F
:101BA0000E945A0388EB9BE0FE013197F1F7019701
:101BB000D9F710936C0311C026E0822E9BECA92E5E
:101BC0008BED982E1BEAC12EBBEBBB2E1BE1ABE2CB
:101BD000DA2EFBE3FF2EEBE4EE2E809173038430CC
:101BE00009F0F4CD1DCFAA1BBB1B51E107C0AA1FF2
:101BF000BB1FA617B70710F0A61BB70B881F991FAE
:101C00005A95A9F780959095BC01CD010895F89457
:021C1000FFCF04
:101C1200B30128014A0127011F017701CC01D60136
:101C2200C201C201D101AC01C101AA01AC01AB01E7
:101C3200D501810172017201810135014C0140011E
:101C42004A01C4013601D601BF01BC01C201B30180
:101C520047012C011C01B601BE01D10145013B0126
:101C620095012C0166014E01BE01950138017201F8
:101C72005301C201C201D801DA0150013E01D6016D
:101C8200D60140012C011F01950144017A014F0147
:101C92004A019501680190014A013C01A9017E01B6
:101CA20084016F017201CE01CB01C90151013D01D5
:101CB200CF01A7015A01430139019001B601B201D6
:101CC2002C013D018B01150135013A0137019A01C1
:101CD2005901590140012F019A01CD01D601450157
:101CE20047018601CC01CF016D0179019A01CC0136
:101CF200D601BE015401A10168014D0140012C0130
:101D0200D601440174015A01AE018401C701500198
:101D120039012F01B30128014A0127011F0177016F
:101D2200CC01D601C201C201D101AC01C101AA019B
:101D3200AC01AB01D50181017201720154012C0188
:101D420048013B013B01C4013601D601BF01BC0180
:101D5200AE01B3015E0131012401C401CE01DB01F8
:101D6200390136019001490175015001B90195010E
:101D7200380172015301C201C201D801DA015001D6
:101D82003E01D601D60140012C011F0195014401FB
:101D92007A014F014A019F014A0170014F01360148
:101DA200A9017E0184016F017201CE01CB01C9013B
:101DB20051013D01CF01A7015A01430139019501AA
:101DC200DB01C901400154018B01150135013A01C2
:101DD20037019A015901590140012F019A01CD01A0
:101DE200D601450147018601CC01CF016D01790180
:101DF2009A01CC01D601BE015401A10168014D0135
:101E020040012C01D601440174015A01AE01840142
:101E1200C701500139012F01B30128014A012701ED
:101E22001F017701C201CC01B501B701BD019801C3
:101E32009E018C019801B301BB0179015C015D0136
:101E420059011801480137013F01BC017A01C00163
:101E5200AB019F01BB019D0154012C011301C4017F
:101E6200CE01DB013901360182012D015E0139010A
:101E7200A70182012D015E013901A701BD01C40143
:101E8200CE0136011F01D601D60140012C011F01EE
:101E920058014C0179015A012C016E014D01720168
:101EA20036011D01A2015F016D015D015A01BD01F3
:101EB200C201B50139012201CA01A6015001340152
:101EC2001D017F01AE01B1013501280178010E012A
:101ED200400130011E01B801640167014F013F0159
:101EE2008201C101CE013D0132019A01C701CF0138
:101EF2003F0133019701C201CE01B1013D018B01C6
:101F020042013D012A012201C50125015E0148016C
:0E1F1200A1019601C10140012D011B011B0020
:00000001FF
