:100000000C942A120C9447120C9447120C94471229
:100010000C9447120C9447120C9447120C944712FC
:100020000C9447120C9447120C9447120C944712EC
:100030000C9447120C94772C0C94A12C0C9447121E
:100040000C9447120C9447120C9447120C944712CC
:100050000C9447120000000000000000183C24240B
:100060002424243C183C242424243C3C183C2424F0
:10007000243C3C3C183C24243C3C3C3C183C243C68
:100080003C3C3C3C183C3C3C3C3C3C3C183C3C3CF8
:100090003C3C3C3C00000000000000000000000070
:1000A0000000000000000000000000000000000050
:1000B0000000000000000000000000000000000040
:1000C0000000000000000000000000000000000030
:1000D0000000000000000000000000000000000020
:1000E0000000000000000000000000000000000010
:1000F0000000000000000000000000000000000000
:1001000000000000000000000000000000000000EF
:1001100000000000000000000000000000000000DF
:1001200000000000000000000000000000000000CF
:1001300000000000000000000000000000000000BF
:1001400000000000000000000000000000000000AF
:1001500000000000000000000000000000004F0050
:1001600000000000000700070000000000147F14DA
:100170007F14000000242A7F2A12000000231308A5
:10018000646200000036495522400000000005036B
:1001900000000000001C2241000000000041221C61
:1001A000000000000014083E081400000008083E8B
:1001B00008080000000028180000000000080808D7
:1001C000080808000030300000000000002010087F
:1001D00004020000003E5149453E00000000427FFD
:1001E00040000000004261514946000000214145A5
:1001F0004B310000001814127F100000000027454A
:1002000045453900003C4A49493000000001710968
:1002100005030000003649494936000000064949F7
:10022000291E00000000363600000000000056368F
:1002300000000000000814224100000000242424D3
:100240002424000000004122140800000002015193
:100250000906000000324979413E0000007E11117C
:10026000117E0000007F494949360000003E4141AF
:1002700041220000007F4141221C0000007F4949CB
:1002800049410000007F090909010000003E414981
:10029000493A0000007F0808087F00000000417F05
:1002A00041000000002040413F010000007F081491
:1002B00022410000007F404040400000007F020CCF
:1002C000027F0000007F0408107F0000003E4141D3
:1002D000413E0000007F0909090600003E4151210E
:1002E0005E000000007F09192946000000464949C8
:1002F000493100000001017F01010000003F404042
:10030000403F0000001F2040201F0000003F4060D1
:10031000403F0000006314081463000000070870E9
:10032000080700000061514945430000007F41413A
:10033000000000000015167C161500000041417FEA
:1003400000000000000402010204000000404040E0
:10035000404000000001020400000000002054544E
:1003600054780000007F444444380000003844447E
:100370004400000000384444487F000000385454D2
:100380005418000000107E1101020000000C5252AF
:10039000523E0000007F0804047800000000447D05
:1003A00040000000002040403D000000007F102879
:1003B000440000000000417F40000000007C041861
:1003C00004780000007C08040478000000384444ED
:1003D00044380000007C14141408000000081414B1
:1003E000187C0000007C08040408000000485454F5
:1003F0005420000000043F4440200000003C4040E6
:10040000207C0000001C2040201C0000001E20104A
:10041000201E000000221408142200000006484894
:10042000483E0000004464544C440000000836413B
:10043000000000000000007F0000000000413608BE
:10044000000000000008082A1C08000000081C2A00
:1004500008080000003C4241423C00000004061D28
:100460002524202020202020A020283020202020EB
:10047000B020202000302820A02030202020202262
:100480002022283020202022302220200030282244
:10049000202230202020202221222830202020222B
:1004A000312220200030282221223020202028281C
:1004B00028B0202020202828283020202020282A6A
:1004C0002830202000242424382020200024252423
:1004D0003820202000808040302020200080804074
:1004E00034202020202020382038201820203820B8
:1004F000382038206080807820382018202020384C
:100500002239221820203822392238206080807831
:10051000223922182020302030282818203020307E
:10052000282838206080806030282838202030201B
:1005300030282A1820302030282A38206080806017
:1005400030282A3820203E302828382020203E30ED
:10055000282A382020202020302828002020203061
:10056000282820200040A0B028282020202020205B
:1005700030282A0020202030282A20200040A0B047
:10058000282A20202020202030282A30202030280F
:100590002A3020200018202030282A302020202037
:1005A000302A28322020302A28322020608080B251
:1005B000A87A202022252525252525192020201C44
:1005C0002221202030282C2A203F202020202020DB
:1005D00020201F00202020201F202020003040400D
:1005E0003F20202020202020304848302020304844
:1005F00048302020804030484830202020202020D3
:1006000022201800202020201A20202030404440A2
:100610003020202020202030283A2C18202030287C
:100620003A2C3820001814141820202000212224ED
:1006300028100F0000B0A87820202020202020A023
:1006400020A02830202020A030A020200060808022
:10065000A0501020001E2020202020200020302824
:1006600028200000000402023A02020100000406F1
:100670003D050400000004B6AD7D0400000080C00C
:10068000BFA0800004668595A8A848000000003F30
:100690000000000000302820A02028300000302A70
:1006A0002832000000302822202228300030282262
:1006B0002122283000C0A8A828B0202000C0A8A867
:1006C000A830202000C0A8AA283020200000242420
:1006D00024380000000024252438000000808040D9
:1006E000300000000000808040340000608080788E
:1006F000203820186080807822392218608080603D
:10070000302828186080806030282A1800221408B9
:100710001422000020203E302828180020203E30DF
:10072000282A1800000040A0B0282800000040A09F
:10073000B02A28002020202020202020001820205F
:1007400030282A3000608080B2A87A000030282C3F
:100750002A203F000040A9AAA8F000000000608005
:10076000807E00000040AAA9AAF000000000C0207E
:100770003028283000006080888060000000302829
:1007800028300000000000B0A878000004262525CD
:1007900028100F000422222629100F0000212224F5
:1007A000A8D0AFA00070AAA9AA3000000070AAA823
:1007B000AA30000000304040502808000030C040FF
:1007C000D028080000000279020000000000027832
:1007D0000200000000000000000505050000000404
:1007E000030B0606A0A0A00000000000000001010D
:1007F000010100000021222428102F200000000009
:1008000000040303000080808080000000001010BE
:1008100054101000000002040204020020242625C7
:10082000252028302024262535202020086C8A8A7F
:10083000A050102004B6AD7D2420202000191415EE
:10084000182020200402021A222221200040605099
:100850004850404000000000000000000000000080
:100860000000000000000000000000000000000088
:100870000000000000000000000000000000000078
:100880000000000000000000000000000000000068
:100890000000000000000000000000000000000058
:1008A0000000000000C0E0E0C00000E0F0F0F0C098
:1008B000400000008080C0C0C00040000000000078
:1008C0000000000000000000000000000000000028
:1008D0000000000000000000000000000000000018
:1008E00000000000000000000000000000F008040C
:1008F0002222311109070000000000000000000062
:1009000000000000000000000040C0C0705840001F
:100910000000000000000000200000401E3EFCFA25
:10092000E4C08080003FFFFFFFFE80FFFFFFFFFF6E
:10093000E0D2F0F0FCFFFF1F030100000000000008
:1009400000000000000000000000000000000000A7
:100950000000000000000000000000000000000097
:100960000000000000000000007098888080C346EE
:100970003800E018661D0E7B8C06714C4231798F71
:10098000C0381E050E0B0D047846613008000000CB
:100990000000000000000000000000000000000552
:1009A00093FFFFFFFFFFFFFFFFFFFFFFFFFFFFFFC3
:1009B000FFFFFFFFFF818281C08080C0C0C0E0E0F8
:1009C000C0C0800000000000000000000000000027
:1009D0000000000000000000000000000000000017
:1009E0000000000000000000000000000000000007
:1009F00000000000000000000000000000000000F7
:100A000000000000000000000000000000000000E6
:100A10000000000000000000000000000000004096
:100A200000C8FFFFFFFFFFFFFFFFFFFFFFFFFF7F8C
:100A30003F3F1F5F1F0F0F1F07070303030901013C
:100A400001010101000000000000000000000000A2
:100A50000000000000000000000000000000000096
:100A60000000000000000000000000000000008006
:100A70004060201090E00000C02090700000000056
:100A80000000000000000000000000000000000066
:100A90000000000000000000000000000090F0F9DD
:100AA000FFFFFFFFFFFFFFFFFFFFFFFF3F070141CA
:100AB0000000000000000000000000000000000036
:100AC0000000000000000000000000000000000026
:100AD0000000000000000000000000000000000016
:100AE00000000000000000000000C0701C060301B0
:100AF00080C80C06E3782E9904C221907000C030A3
:100B000080F0B0C040A050300000000000000000A5
:100B10000000000000000000B0E0FEFEFFFFFFFF4D
:100B2000FFFFFFFFFFFFFFFFFFFF7F201000000020
:100B300000000000000000000000000000000000B5
:100B400000000000000000000000000000000000A5
:100B50000000000000000000000000000000000095
:100B600000000000000000000000030404C4721F25
:100B70000701000704020100070402010007040244
:100B8000010000070504040201000000000000004D
:100B90000000000000000407070707070707070712
:100BA00007070707070707070707000200000000FD
:100BB0000000000000000000000000000000000035
:100BC0000000000000000000000000000000000025
:100BD0000000000000000000000000000000000015
:100BE0000000000000000000000000000001000004
:100BF00000000000000000000000000000000000F5
:100C000000000000000000000000000000000000E4
:100C100000000000000000000000000000000000D4
:100C200000000000000000000000000000000000C4
:100C300000000000000000000000000000000000B4
:100C400000000000000000000000000000000000A4
:100C50000000000000000000000000000000000094
:100C60000000000000000000000000000000000084
:100C70000000000000000000000000000000000074
:100C80000000000000000000000000000000000064
:100C90000000000000000000000000000000000054
:100CA0000000000000000000000000000000000044
:100CB0000000000000000000000000000000000034
:100CC0000000000000000000000000000000000024
:100CD0000000000000000000000000000000000014
:100CE00000000000000000000000000000F0080408
:100CF000222231110907000000000000000000005E
:100D000000000000000000000040C0C0705840001B
:100D100000000000000000000000000000000000D3
:100D200000000000000000000000000000000000C3
:100D300000000000000000000000000000000000B3
:100D400000000000000000000000000000000000A3
:100D50000000000000000000000000000000000093
:100D60000000000000000000007098888080C346EA
:100D70003800E018661D0E7B8C06714C4231798F6D
:100D8000C0381E050E0B0D047846613008000000C7
:100D90000000000000000000000000000000000053
:100DA0000000000000000000008040008000800083
:100DB000000040C080C08040008000808000800033
:100DC0004080000000000000000000000000000063
:100DD0000000000000000000000000000000000013
:100DE0000000000000000000000000000000000003
:100DF00000000000000000000000000000000000F3
:100E000000000000000000000000000000000000E2
:100E100000000000000000000000000000000000D2
:100E200000008004F0E0F8FAF8FCFFFCFEFEFEFE95
:100E3000FEFEFFFFFFFFFFFFFFFFFFFFFFFFFFFFC4
:100E4000DEE0088B10140880200000000000000085
:100E50000000000000000000000000000000000092
:100E60000000000000000000000000000000008002
:100E70004060201090E00000C02090700000000052
:100E80000000000000000000000000000000000062
:100E90000000000000000000000000002000000032
:100EA00000040000E3FFFFFFFFFFFFFFFFFFFFFF66
:100EB000FFFFFFFFFFFFFFFF3F1F1F8F070703031A
:100EC0000900000201000000000000000000000016
:100ED0000000000000000000000000000000000012
:100EE00000000000000000000000C0701C060301AC
:100EF00080C80C06E3782E9904C221907000C0309F
:100F000080F0B0C040A050300000000000000000A1
:100F1000000000000000000000000000020080D17E
:100F2000F2FCFEFFFFFFFFFFFFFFFFFFFFFFFFFFE2
:100F3000FFFFFF7F3F0F4708000000050000000093
:100F400000000000000000000000000000000000A1
:100F50000000000000000000000000000000000091
:100F600000000000000000000000030404C4721F21
:100F70000701000704020100070402010007040240
:100F80000100000705040402010000000000000049
:100F900000000000000000000080C8F0FCFEFFFF21
:100FA000FFFFFFFFFFFFFFFFFFFFFFFFFFFFFFFF51
:100FB000FF1F010000008A00000000000000000088
:100FC0000000000000000000000000000000000021
:100FD0000000000000000000000000000000000011
:100FE0000000000000000000000000000001000000
:100FF00000000000000000000000000000000000F1
:1010000000000000000000000000000000000000E0
:101010000000000000000000001F1F1F1F1F1F1FF7
:101020001F1F1F1F1F1F1F1F1F1F1F1F1F1F1F1FD0
:101030001F0000040000100000000000000000007D
:1010400000000000000000000000000000000000A0
:101050000000000000000000000000000000000090
:101060000000000000000000000000000000000080
:101070000000000000000000000000000000000070
:101080000000000000000000000000000000000060
:101090000000000000000000000000000000000050
:1010A0000000000000000000000000000000000040
:1010B00000000000000000000000000000808080B0
:1010C0008080000000000000000000000000000020
:1010D0000000000000000000000000000000000010
:1010E00000000000000000000000000000F0080404
:1010F000222231110907000000000000000000005A
:1011000000000000000000000040C0C07058400017
:1011100000000000000000000000000000000000CF
:1011200000000000000000000000000000000000BF
:10113000000000000000000000000080E0FFFFFF52
:10114000FFFFFF1002000000000000000000000090
:10115000000000000000000000000000000000008F
:101160000000000000000000007098888080C346E6
:101170003800E018661D0E7B8C06714C4231798F69
:10118000C0381E050E0B0D047846613008000000C3
:10119000000000000000000000000000000000004F
:1011A0000000000000000080E0F0F0F8F8F8F8FC23
:1011B000FCFCFEFEFEFFFFFEFEFEFEFFFFFFFFFF4C
:1011C000FF3F0300020000000000000000000000DC
:1011D000000000000000000000000000000000000F
:1011E00000000000000000000000000000000000FF
:1011F00000000000000000000000000000000000EF
:1012000000000000000000000000000000000000DE
:1012100000000000000000000000000000000000CE
:101220000000000000000020378FFFFFFFFFFFFFDE
:10123000FFFFFFFFFFFFFFFFFFFFFFFF7F1F0F0706
:10124000000000000000000000000000000000009E
:10125000000000000000000000000000000000008E
:1012600000000000000000000000000000000080FE
:101270004060201090E00000C0209070000000004E
:10128000000000000000000000000000000000005E
:10129000000000000000000000000000000000004E
:1012A000000000000090E0FCFFFFFFFFFFFFFFFFDA
:1012B000FFFFFFFFFFFFFFFFFF3F07111820280080
:1012C000000000000000000000000000000000001E
:1012D000000000000000000000000000000000000E
:1012E00000000000000000000000C0701C060301A8
:1012F00080C80C06E3782E9904C221907000C0309B
:1013000080F0B0C040A0503000000000000000009D
:1013100000000000000000000000000000002000AD
:1013200004E0F0F8FFFFFFFFFFFFFFFFFFFFFFFFFD
:10133000FFFFFFFFFFFFFF0F200000040000000081
:10134000000000000000000000000000000000009D
:10135000000000000000000000000000000000008D
:1013600000000000000000000000030404C4721F1D
:10137000070100070402010007040201000704023C
:101380000100000705040402010000000000000045
:1013900000000000000000000000100040707C7F92
:1013A0007F7F7F7F7F7F7F7F7F7F7F7F7F7F7F7F4D
:1013B0007F7F7F7F7F7F7F1800000000000000009C
:1013C000000000000000000000000000000000001D
:1013D000000000000000000000000000000000000D
:1013E00000000000000000000000000000010000FC
:1013F00000000000000000000000000000000000ED
:1014000000000000000000000000000000000000DC
:1014100000000000000000000000000000000000CC
:1014200000000000000000000000000000000000BC
:1014300000000000000000000000000000000000AC
:10144000000000000000000000000000000000009C
:10145000000000000000000000000000000000008C
:10146000000000000000000000000000000000007C
:10147000000000000000000000000000000000006C
:10148000000000000000000000000000000000005C
:10149000000000000000000000000000000000004C
:1014A000000000000000000000000000000000003C
:1014B000000000000000000000000000000000002C
:1014C000000000000000000000000000000000001C
:1014D000000000000000000000000000000000000C
:1014E00000000000000000000000000000F0080400
:1014F0002222311109070000000000000000000056
:1015000000000000000000000040C0C07058400013
:1015100000000000000000000000000000000000CB
:101520000000000000000000000000008010FEFE2F
:10153000FEFEFCFC004000F0F8F8F8F8F0000000B7
:10154000000000000000000000000000000000009B
:10155000000000000000000000000000000000008B
:101560000000000000000000007098888080C346E2
:101570003800E018661D0E7B8C06714C4231798F65
:10158000C0381E050E0B0D047846613008000000BF
:10159000000000000000000000000000000000004B
:1015A0000000004080C098C0C8C0F0E1E0F0E7FF54
:1015B000FFFFFFFFF0F0FEFFFFFFFF07F00400005A
:1015C000000000000000000000000000000000001B
:1015D000000000000000000000000000000000000B
:1015E00000000000000000000000000000000000FB
:1015F00000000000000000000000000000000000EB
:1016000000000000000000000000000000000000DA
:1016100000000000000000000000000000000000CA
:1016200004104010FEFFFFFFFFFFFFFFFFFFFFFF63
:10163000FFFFFFFFFFFF7F3F1F01000000000000D2
:10164000000000000000000000000000000000009A
:10165000000000000000000000000000000000008A
:1016600000000000000000000000000000000080FA
:101670004060201090E00000C0209070000000004A
:10168000000000000000000000000000000000005A
:10169000000000000000000000000080001000506A
:1016A000C0F8FCFFFFFFFFFFFFFFFFFFFFFFFFFF93
:1016B0003F1F87030D000000000000000000000035
:1016C000000000000000000000000000000000001A
:1016D000000000000000000000000000000000000A
:1016E00000000000000000000000C0701C060301A4
:1016F00080C80C06E3782E9904C221907000C03097
:1017000080F0B0C040A05030000000000000000099
:10171000000000000000001000200000C0F0F8FFF2
:10172000FFFFFFFFFFFFFFFFFFFFFFFFFFFF7F0F39
:1017300000010000000000000000000000000000A8
:101740000000000000000000000000000000000099
:101750000000000000000000000000000000000089
:1017600000000000000000000000030404C4721F19
:101770000701000704020100070402010007040238
:101780000100000705040402010000000000000041
:10179000000000000000008080C8F0FCFFFFFFFF99
:1017A000FFFFFFFFFFFFFFFFFFFFFFFFFF3F204D9A
:1017B0000000000000000000000000000000000029
:1017C0000000000000000000000000000000000019
:1017D0000000000000000000000000000000000009
:1017E00000000000000000000000000000010000F8
:1017F00000000000000000000000000000000000E9
:1018000000000000000000000000000000000000D8
:1018100000000000000000000002000000000000C6
:1018200000000000000000000000000000000100B7
:1018300000000000000000000000000000000000A8
:101840000000000000000000000000000000000098
:101850000000000000000000000000000000000088
:101860000000000000000000000000000000000078
:101870000000000000000000000000000000000068
:101880000000000000000000000000000000000058
:101890000000000000000000000000000000000048
:1018A0000000000000C0E0C0C000C0E0E0E0C000F8
:1018B0000000008080C0C0C00000000000000000E8
:1018C0000000000000000000000000000000000018
:1018D0000000000000000000000000000000000008
:1018E00000000000000000000000000000F00804FC
:1018F0002222311109070000000000000000000052
:1019000000000000000000000040C0C0705840000F
:1019100000000000000000000000000000000000C7
:101920000020040000FFFFFFFFC0FFFFFFFFFF00DC
:10193000A4E0F4FCFFFF7F1F00000800000000008F
:101940000000000000000000000000000000000097
:101950000000000000000000000000000000000087
:101960000000000000000000007098888080C346DE
:101970003800E018661D0E7B8C06714C4231798F61
:10198000C0381E050E0B0D047846613008000000BB
:101990000000000000000000000000000000000047
:1019A00000F4F8F8FCFFFFFFFFFFFFFFFFFFFFFF62
:1019B000FFFFFF3F07018001000000000000000062
:1019C0000000000000000000000000000000000017
:1019D0000000000000000000000000000000000007
:1019E00000000000000000000000000000000000F7
:1019F00000000000000000000000000000000000E7
:101A000000000000000000000000000000000000D6
:101A100000000000000000000000000000000000C6
:101A20000003FFFFFFFFFFFFFFFFFFFFFFFFFFFFC1
:101A30007F4B2000040000000000000000000000B8
:101A40000000000000000000000000000000000096
:101A50000000000000000000000000000000000086
:101A600000000000000000000000000000000080F6
:101A70004060201090E00000C02090700000000046
:101A80000000000000000000000000000000000056
:101A9000000000000000000000000000410090F085
:101AA000F8FFFFFFFFFFFFFFFFFFFFFFFF7F0F9329
:101AB0000200000000000000000000000000000024
:101AC0000000000000000000000000000000000016
:101AD0000000000000000000000000000000000006
:101AE00000000000000000000000C0701C060301A0
:101AF00080C80C06E3782E9904C221907000C03093
:101B000080F0B0C040A05030000000000000000095
:101B100000000000000000800000C0F0FCFEFFFF9D
:101B2000FFFFFFFFFFFFFFFFFFFFFFFF0F80000032
:101B300000010000000000000000000000000000A4
:101B40000000000000000000000000000000000095
:101B50000000000000000000000000000000000085
:101B600000000000000000000000030404C4721F15
:101B70000701000704020100070402010007040234
:101B8000010000070504040201000000000000003D
:101B900000000000000000307E3F3F3F3F3F3F3FDE
:101BA0003F3F3F3F3F3F3F3F3F3F3F3F0000000041
:101BB0000000000000000000000000000000000025
:101BC0000000000000000000000000000000000015
:101BD0000000000000000000000000000000000005
:101BE00000000000000000000000000000010000F4
:101BF00000000000000000000000000000000000E5
:101C000000000000000000000000000000000000D4
:101C100000000000000000000000000000000000C4
:101C200000000000000000000000000000000000B4
:101C300000000000000000000000000000000000A4
:101C40000000000000000000000000000000000094
:101C50000000000000000000000000000000000084
:101C60000000000000000000000000000000000074
:101C70000000000000000000000000000000000064
:101C80000000000000000000000000000000000054
:101C90000000000000000000000000000000000044
:101CA000000000000000808080800040C0C0C08034
:101CB0002000000080808080800000000000000084
:101CC0000000000000000000000000000000000014
:101CD0000000000000000000000000000000000004
:101CE00000000000000000000000000000F00804F8
:101CF000222231110907000000000000000000004E
:101D000000000000000000000040C0C0705840000B
:101D10000000000000000000000000000000102A89
:101D200018F8F8F0C080FFFFFFFFF8E2FFFFFFFFA9
:101D3000FE04D0F0FEFFFFFF3F8000000000000027
:101D40000000000000000000000000000000000093
:101D50000000000000000000000000000000000083
:101D60000000000000000000007098888080C346DA
:101D70003800E018661D0E7B8C06714C4231798F5D
:101D8000C0381E050E0B0D047846613008000000B7
:101D90000000000000000000000000000000020041
:101DA000000005FFFFFFFEFFFFFFFFFFFFFFFFFF3C
:101DB000FFFFFFFFFF1F01110100000000000000F6
:101DC0000000000000000000000000000000000013
:101DD0000000000000000000000000000000000003
:101DE00000000000000000000000000000000000F3
:101DF00000000000000000000000000000000000E3
:101E000000000000000000000000000000000000D2
:101E100000000000000000000000000000000000C2
:101E20000002000387FFFFFFFFFFFFFFFFFFFFFF31
:101E3000FFFF3F0F43000000000000000000000013
:101E40000000000000000000000000000000000092
:101E50000000000000000000000000000000000082
:101E600000000000000000000000000000000080F2
:101E70004060201090E00000C02090700000000042
:101E80000000000000000000000000000000000052
:101E90000000000000000000000000000020804062
:101EA00000C0E0FFFFFFFFFFFFFFFFFFFFFFFF1F7F
:101EB0000F08040000000000000000000000000007
:101EC0000000000000000000000000000000000012
:101ED0000000000000000000000000000000000002
:101EE00000000000000000000000C0701C0603019C
:101EF00080C80C06E3782E9904C221907000C0308F
:101F000080F0B0C040A05030000000000000000091
:101F1000000000000000000000000000C0F2F8FC1B
:101F2000FFFFFFFFFFFFFFFFFFFFFFFFFFFF1F00A0
:101F300000000000000000000000000000000000A1
:101F40000000000000000000000000000000000091
:101F50000000000000000000000000000000000081
:101F600000000000000000000000030404C4721F11
:101F70000701000704020100070402010007040230
:101F80000100000705040402010000000000000039
:101F90000000000000000000000000000F0F0F0F05
:101FA0000F0F0F0F0F0F0F0F0F0F0F0F0F0F00005F
:101FB0000000000000000000000000000000000021
:101FC0000000000000000000000000000000000011
:101FD0000000000000000000000000000000000001
:101FE00000000000000000000000000000010000F0
:101FF00000000000000000000000000000000000E1
:1020000000000000000000000000000000000000D0
:1020100000000000000000000000000000000000C0
:1020200000000000000000000000000000000000B0
:1020300000000000000000000000000000000000A0
:102040000000000000000000000000000000000090
:1020500000000000000000000080C060A0A0206020
:10206000C000008080008080800080200000808090
:10207000808080008000000080800000008080E080
:10208000101000804060A0E0A06080000080000090
:102090000000000000000000000000000000000040
:1020A0000000000000000000000000000000000030
:1020B0000000000000000000000000000000000020
:1020C0000000000000000000000000000000000010
:1020D0000000000000000000000304080E090804CE
:1020E000030F0B0A050C090E000C03704E49683EE5
:1020F000010E010D0B000F0B0A05000E09040F0461
:102100000000000302080F084847211F0C030000CD
:1021100000000000000000000000000000000000BF
:1021200000000000000000000000000000000000AF
:10213000000000000000000000000000000000009F
:10214000000000000000000000000000000000008F
:10215000000000000000000000000000000000007F
:10216000000000000000000000000000000000006F
:1021700000000000000000000000000000003048E7
:10218000883800807844E400804020E04020E0204F
:1021900000E000E000A06040E000000000E0301837
:1021A000A8680818F00020183048883800C020209F
:1021B000E000A06080600060A0606020804020E0BF
:1021C000000000000000000000000000000000000F
:1021D00000000000000000000000000000000000FF
:1021E00000000000000000000000000000000000EF
:1021F00000000000000000000000000002040406CF
:1022000003000003000302000302030200000302B4
:1022100001030100000300030200000000000102AE
:10222000030202010000020404060300000302038B
:10223000000003020302020302020300030203027E
:10224000000000000000000000000000000000008E
:10225000000000000000000000000000000000007E
:10226000000000000000000000000000000000006E
:1022700000000000000000000000804C322EFE82B2
:1022800000E818D0B800C03802C8381008E898E054
:102290009800E09048F84EE19148F84EE11FD1B91E
:1022A0000000000000708C8482D23216E090C8B822
:1022B0001008F88840F8403800E090C8B800E09076
:1022C00048F84EF1B1A858000000000000000000DE
:1022D00000000000000000000000000000000000FE
:1022E00000000000000000000000000000000000EE
:1022F000000000000000000001010000808080005C
:10230000000080000000008040400000804040004D
:1023100000000000000080404000000000000000BD
:1023200000808080800004040601000000008040DE
:10233000400000000000000000000000000000005D
:10234000000000000000000000000000000000008D
:10235000000000000000000000000000000000007D
:10236000000000000000000000000000000000006D
:10237000000000000000000000204043643803001B
:10238000300E003824123E133824123E133C2C2AFF
:102390001630263A023807342E00000000001C23B5
:1023A00021A0740C053824322E003824123E13006C
:1023B000000000000000000000000000000000001D
:1023C000000000000000000000000000000000000D
:1023D00000000000000000000000000000000000FD
:1023E00000000000000000000000000000000000ED
:1023F00000000000000000000000000000000000DD
:1024000000000000000000000000000000000000CC
:1024100000000000000000000000000000000001BB
:1024200001010000000000000000000000000000AA
:10243000000000000000000000000000000000009C
:10244000000000000000000000000000000000008C
:102450000000000011241FBECFE5D8E0DEBFCDBFD5
:1024600014E0A0E6B0E0E2ECFAE602C005900D92BE
:10247000A836B107D9F715E0A8E6B4E001C01D926F
:10248000AF33B107E1F70E940A240C945F350C9436
:102490000000979A8AE1982F9A95F1F797988A9574
:1024A000F1F70895939A949A959896988FE385BB3F
:1024B000979A8AE1982F9A95F1F797988A95F1F76C
:1024C0000895939A949A959896988EE385BB979AD7
:1024D0008AE1982F9A95F1F797988A95F1F70895E0
:1024E00095989698939A949A806C85BB979A8AE16E
:1024F000982F9A95F1F797988A95F1F708959598FE
:1025000096988034910518F4939A949803C0939800
:10251000949A80548F73806485BB979A8AE1982F30
:102520009A95F1F797988A95F1F708959598969866
:102530008770886B85BB979A8AE1982F9A95F1F7F7
:1025400097988A95F1F708951F93162F0E947F128E
:10255000959896981770186B15BB979A8AE1982FE3
:102560009A95F1F797988A95F1F71F910895959AA2
:10257000969885BB85E08A95F1F7979A8AE1982F1E
:102580009A95F1F797988A95F1F708951F93182F68
:1025900080E090E0612F70E00E94A41280E490E05F
:1025A000612F70E00E94A412939A20E030E045E091
:1025B0009AE1959A969815BA842F8A95F1F7979A89
:1025C000892F8A95F1F79798892F8A95F1F72F5FD0
:1025D0003F4F2034310569F71F9108951F9310E094
:1025E000812F0E94C6121F5F1830D1F71F910895E6
:1025F00014BA969A959A803418F4939A949802C0D3
:10260000949A939895E0892F8A95F1F7979A892F54
:102610008A95F1F797988AE68A95F1F7979A892F24
:102620008A95F1F783B397989A95F1F79FEF94BB4A
:102630000895DF92EF92FF920F931F93CF93DF9352
:10264000082FD92EEB01142F7B0183E0F694E79439
:102650008A95E1F7802FB7010E94A412112321F07F
:10266000113091F010E01EC0802F0E94F812C77048
:10267000D07021E030E002C0220F331FCA95E2F78C
:10268000122F109518230EC0802F0E94F812C770C9
:10269000D07021E030E002C0220F331FCA95E2F76C
:1026A000182F122B802F9D2DB7010E94A412959AEE
:1026B000969815BB85E08A95F1F7979A8AE1982F4D
:1026C0009A95F1F797988A95F1F7DF91CF911F913D
:1026D0000F91FF90EF90DF900895BF92CF92DF921D
:1026E000EF92FF920F931F93CF93DF936B01B02E66
:1026F000EC017C01E40EF11C2F5F022F10E007C0FB
:10270000CE01B6014B2D0E941913C00FD11FCE155B
:10271000DF05B0F3DF91CF911F910F91FF90EF9004
:10272000DF90CF90BF900895BF92CF92DF92EF924B
:10273000FF920F931F93CF93DF936C017A01B02E1A
:10274000EB01E60EF71E2F5F022F10E007C0C60157
:10275000BE014B2D0E941913C00FD11FCE15DF05EE
:10276000B0F3DF91CF911F910F91FF90EF90DF9029
:10277000CF90BF9008956F927F928F929F92AF9269
:10278000BF92CF92DF92EF92FF920F931F93182F79
:10279000F92E5B01742E652E6901902E842E881A05
:1027A000482D202F0E2D0E946D13812F9F2DB601D5
:1027B000482D292D0E946D13CA18DB08812F9F2DEB
:1027C000B501A601292D0E9494130894C11CD11CA7
:1027D000872D962DB501A601292D0E9494131F91D6
:1027E0000F91FF90EF90DF90CF90BF90AF909F90B0
:1027F0008F907F906F900895EF92FF921F937C01CE
:10280000CB01142F0E947F12959896981770186B21
:1028100015BB979A8AE1982F9A95F1F797988A9520
:10282000F1F7F70193E0EE0FFF1F9A95E1F7EC5AED
:10283000FF4F90E035E02AE18491959A969885BB08
:10284000832F8A95F1F7979A822F8A95F1F79798B7
:10285000822F8A95F1F79F5F3196983069F71F9123
:10286000FF90EF900895959A969885BB85E08A959C
:10287000F1F7979A8AE1982F9A95F1F797988A95A8
:10288000F1F70895EF92FF920F931F93CF93DF9389
:102890007C01C0E0D0E01AE105E0CE018F779070B6
:1028A0000E947F1295989698CE01880F892F881FD5
:1028B000990B8770886B85BB979A812F8A95F1F762
:1028C0009798812F8A95F1F7F701EC0FFD1FE4919E
:1028D000959A9698E5BB802F8A95F1F7979A812F64
:1028E0008A95F1F79798812F8A95F1F7219684E0E0
:1028F000C030D80791F6DF91CF911F910F91FF90D3
:10290000EF900895BF92CF92DF92EF92FF920F93D4
:102910001F93CF93DF93E62E8C01C0E0D0E06AE1F5
:10292000F62E55E0B52E40E4C42E4FE1D42ECE0154
:102930008F7790700E947F1295989698CE01880F9D
:10294000892F881F990B8770886B85BB979A8F2D6D
:102950008A95F1F797988F2D8A95F1F781E0E8161F
:1029600019F4F801849103C0F80184918095959A37
:10297000969885BB8B2D8A95F1F7979A8F2D8A951E
:10298000F1F797988F2D8A95F1F7C6010197F1F726
:1029900021960F5F1F4FF4E0C030DF0709F0C7CF6B
:1029A000DF91CF911F910F91FF90EF90DF90CF902B
:1029B000BF9008959F92AF92BF92CF92DF92EF9215
:1029C000FF920F931F93CF93DF93C62E7C0100E0FD
:1029D00010E0C0E0D0E0AAE1DA2EF5E09F2EE0E9B9
:1029E000AE2EE1E0BE2ECE018F7790700E947F1256
:1029F0009E01220F232F221F330B95989698822F2A
:102A00008770886B85BB979A8D2D8A95F1F797987B
:102A10008D2D8A95F1F781E0C81619F4F70184919C
:102A200003C0F70184918095959A969885BB892D6E
:102A30008A95F1F7979A8D2D8A95F1F797988D2DB4
:102A40008A95F1F70217130714F0980107C080ED7B
:102A500097E0F5013197F1F70197D9F7219608949E
:102A6000E11CF11CF4E0C030DF0711F08901BBCF9D
:102A7000DF91CF911F910F91FF90EF90DF90CF905A
:102A8000BF90AF909F900895CF92DF92EF92FF9208
:102A90000F931F93CF93DF93082FC0E0D0E01AE18C
:102AA00095E0D92ECC24CA9480E4E82E8FE1F82E4C
:102AB000CE018F7790700E947F1295989698CE01E4
:102AC000880F892F881F990B8770886B85BB979A11
:102AD000812F8A95F1F79798812F8A95F1F7013028
:102AE00021F4959A9698C5BA03C0959A969815BA06
:102AF0008D2D8A95F1F7979A812F8A95F1F79798FE
:102B0000812F8A95F1F7C7010197F1F7219684E0AB
:102B1000C030D80769F6DF91CF911F910F91FF90D8
:102B2000EF90DF90CF900895AF92BF92CF92DF9257
:102B3000EF92FF920F931F93CF93DF93E82EC0E0A5
:102B4000D0E000E010E07AE1F72E65E0B62EAA248E
:102B5000AA9450E9C52E51E0D52ECE018F77907002
:102B60000E947F129E01220F232F221F330B959864
:102B70009698822F8770886B85BB979A8F2D8A9540
:102B8000F1F797988F2D8A95F1F781E0E81621F4F7
:102B9000959A9698A5BA03C0959A969815BA8B2DD2
:102BA0008A95F1F7979A8F2D8A95F1F797988F2D3F
:102BB0008A95F1F70217130714F0980107C080ED0A
:102BC00097E0F6013197F1F70197D9F7219684E064
:102BD000C030D80711F08901C0CFDF91CF911F918C
:102BE0000F91FF90EF90DF90CF90BF90AF9008953E
:102BF000C398B699FECF8BE08FB9779BFECF86E066
:102C00008FB9779BFECFC39AC398B699FECF8CE05D
:102C10008FB9779BFECF1FB8779BFECFC39AC3981F
:102C2000B699FECF8DE08FB9779BFECF8DE58FB93A
:102C3000779BFECFC39AC398B699FECF8EE08FB92B
:102C4000779BFECF83E98FB9779BFECFC39AC3985A
:102C5000B699FECF8FE08FB9779BFECF81EB8FB90E
:102C6000779BFECFC39AC398B699FECF80E18FB908
:102C7000779BFECF8DE28FB9779BFECFC39AC39827
:102C8000B699FECF81E18FB9779BFECF8BE38FB9E9
:102C9000779BFECFC39AC398B699FECF82E18FB9D6
:102CA000779BFECF83E78FB9779BFECFC39AC398FC
:102CB000B699FECF83E18FB9779BFECF82E28FB9C1
:102CC000779BFECFC39AC398B699FECF84E18FB9A4
:102CD000779BFECF88EF8FB9779BFECFC39AC398BF
:102CE000B699FECF8AE08FB9779BFECF83E08FB98C
:102CF000779BFECFC39AC398B699FECF85E18FB973
:102D0000779BFECF1FB8779BFECFC39AC398B69927
:102D1000FECF81E28FB9779BFECF86EB8FB9779B91
:102D2000FECFC39AC398B699FECF82E28FB9779B44
:102D3000FECF80E18FB9779BFECFC39AC398B69937
:102D4000FECF88E18FB9779BFECF88E18FB9779B63
:102D5000FECFC39AC398B699FECF89E18FB9779B0E
:102D6000FECF8DE18FB9779BFECFC39AC398B699FA
:102D7000FECF8AE18FB9779BFECF8CE18FB9779B2D
:102D8000FECFC39AC398B699FECF8BE18FB9779BDC
:102D9000FECF87EC8FB9779BFECFC39AC398B699C5
:102DA000FECF8CE18FB9779BFECF1FB8779BFECF0C
:102DB000C39AC398B699FECF8DE18FB9779BFECFAA
:102DC00082EB8FB9779BFECFC39AC398B699FECF9B
:102DD00083E28FB9779BFECF8AEE8FB9779BFECFC8
:102DE000C39AC398B699FECF84E28FB9779BFECF82
:102DF0008AE08FB9779BFECFC39AC398B699FECF6E
:102E000085E28FB9779BFECF1FB8779BFECFC39A21
:102E1000C398B699FECF86E28FB9779BFECF81E14A
:102E20008FB9779BFECFC39AC398B699FECF89E23C
:102E30008FB9779BFECF89E58FB9779BFECFC39A79
:102E4000C398B699FECF8CE28FB9779BFECF88E806
:102E50008FB9779BFECFC39AC398B699FECF8DE208
:102E60008FB9779BFECF81E38FB9779BFECFC39A53
:102E7000C398B699FECF8EE28FB9779BFECF8BE0D9
:102E80008FB9779BFECFC39AC398B699FECF83E0E4
:102E90008FB9779BFECF87E08FB9779BFECFC39A20
:102EA000C398B699FECF1FB8779BFECF86E08FB947
:102EB000779BFECFC39AC398B699FECF82E08FB9B5
:102EC000779BFECF81E08FB9779BFECFC39AC398E3
:102ED000B699FECF87E08FB9779BFECF84E08FB99C
:102EE000779BFECFC39AC398B699FECF88E08FB97F
:102EF000779BFECF85E08FB9779BFECFC39AC398AF
:102F0000B699FECF89E08FB9779BFECF1FB8779B2C
:102F1000FECFC39AC398B699FECF86E08FB9779B50
:102F2000FECF8FEF8FB9779BFECFC39A0895982F6E
:102F3000C398B699FECF8AE08FB9779BFECF9FB931
:102F4000779BFECFC39A0895982FC398B699FECF6A
:102F500089E08FB9779BFECF9FB9779BFECFC39A4D
:102F6000089583E083BF19BE0895BB9ABC9ABD9AA9
:102F7000BE98BF9A80E58DB98EB18EB90895C39879
:102F80008FB9779BFECFC39A0895BC98BD98BE9A1F
:102F9000BF9880E48DB90895779BFECF8FB10895D7
:102FA0008FB9779BFECF08958FB9779BFECF8FB1F6
:102FB0000895779BFECF8FB10895C398B699FECF41
:102FC00080688FB9779BFECF8FB9779BFECF8FB18B
:102FD000C39A0895C398B699FECF806C8FB9779B3A
:102FE000FECF8FB9779BFECF8FB1C39A0895C39858
:102FF000B699FECF8F778FB9779BFECF6FB9779B4E
:10300000FECFC39A0895C398B699FECF582F506C3F
:103010005FB9779BFECFFB0190E006C05FB9779B5D
:10302000FECF8FB181939F5F9417C0F3C39A089529
:10303000C398B699FECF80648FB9779BFECFFB0112
:1030400090E006C080818FB9779BFECF9F5F31965D
:103050009417C0F3C39A0895C398B699FECF8FB959
:10306000779BFECFC39A08950F931F939C01462F21
:10307000C398B699FECF8BE38FB9779BFECFC39AE7
:1030800000E41CE9F8013197F1F78FE3B9010E94E0
:103090001818C8010197F1F7C398B699FECF85E3D8
:1030A0008FB9779BFECFC39A80E49CE90197F1F733
:1030B00012BE03C082B78F3F41F08AE30E94EA1735
:1030C00090E08F779070892BA9F71F910F91089549
:1030D000C398B699FECF8EE38FB9779BFECF8FEF63
:1030E0008FB9779BFECFC39AC398B699FECF82E281
:1030F0008FB9779BFECF80E18FB9779BFECFC39AC4
:103100008AEF90E020E931E0F9013197F1F701977A
:10311000D9F785E08093C50485EC94E066E00E94D1
:10312000341808951F93CF93DF93EC01162F8BE390
:103130000E94EA1790E08F779070892B69F485E3FD
:103140000E94EA178D30B9F1C398B699FECF84E397
:103150008FB9779BFECF2EC012BE0BC082B78F3FB8
:1031600041F4C398B699FECF8AE38FB9779BFECF1F
:1031700021C085E30E94EA178F71813079F78FE3D0
:103180000E94DD17811779F48FE3BE01412F0E9461
:103190000318C398B699FECF8AE38FB9779BFECF09
:1031A000C39A81E009C0C398B699FECF8AE38FB96C
:1031B000779BFECFC39A80E0DF91CF911F91089556
:1031C0008EEB94E065E00E949218811181E00895F1
:1031D000C398B699FECF86E38FB9779BFECFC39A8B
:1031E000C39A8AE18A95F1F7C39885E38A95F1F746
:1031F000C39A85ED8A95F1F7C398B699FECFC39827
:10320000B699FECF80E38FB9779BFECFC39AC39A5E
:10321000089583E083BF19BEBB9ABC9ABD9ABE983D
:10322000BF9A80E58DB98EB18EB90E94E8180E94D0
:10323000F815C398B699FECF8EE38FB9779BFECF72
:103240008FEF8FB9779BFECFC39A089585E30E94D5
:10325000EA178093BC0490E08F719070892B21F461
:103260000E94E8180E94F815089580E487B981E863
:1032700086B9089516B817B8089597B18770892B45
:1032800087B9369A349BFECF349A24B135B1C9013F
:103290000895EF92FF920F931F9380E487B981E81E
:1032A00086B987B1876087B9369A349BFECF349A46
:1032B00064B175B1882777FD8095982F0E944031C1
:1032C00020E030E040EA50E40E940A2F20E030E0A5
:1032D00040E85AE30E940A2F2FEB3EED47E35DE3FF
:1032E0000E9404307B018C012DEC3CEC44E151E464
:1032F0000E941031882344F481E090E060E770E0A0
:1033000040E050E00E94FC13C801B70126E636E613
:103310004EE151E40E94B030181644F482E090E08F
:1033200060E770E040E050E00E94FC13C801B70184
:103330002DEC3CEC44E251E40E94B030181644F409
:1033400083E090E060E770E040E050E00E94FC1312
:10335000C801B7012AE939E941E351E40E94B030DC
:10336000181644F484E090E060E770E040E050E03C
:103370000E94FC13C801B70126E636E646E451E494
:103380000E94B030181644F485E090E060E770E0E9
:1033900040E050E00E94FC13C801B70120E030E09B
:1033A00040E551E40E94B030181644F486E090E005
:1033B00060E770E040E050E00E94FC1316B817B8D8
:1033C0001F910F91FF90EF9008959C01E199FECF1E
:1033D0003FBB2EBBE09A8DB308959C01E199FECFCF
:1033E0003FBB2EBB6DBB0FB6F894E29AE19A0FBEBD
:1033F000089511BA8FE082BB20E044E050E061E024
:1034000070E0CB01042E02C0880F991F0A94E2F7E6
:1034100081BB80B38E30E1F08D3041F18B30B1F162
:10342000873009F443C02F5F4F5F5F4F243049F767
:10343000823009F44BC0833018F4813039F446C02F
:10344000833009F443C0843009F440C08FE208950A
:103450002130E9F1223011F480E30895233011F492
:1034600083E20895222391F584E40895213011F434
:1034700087E30895223011F488E30895233011F48E
:1034800089E30895222311F583E40895213011F48E
:1034900084E30895223011F485E30895233011F474
:1034A00086E30895222391F482E40895213011F4F3
:1034B00081E30895223011F482E30895233011F45A
:1034C00083E30895222311F481E4089508958AE2A4
:1034D0000895EFECF4E0119285E0EF33F807D9F7A7
:1034E00008952F923F924F925F926F927F928F92A8
:1034F0009F92AF92BF92CF92DF92EF92FF920F9383
:103500001F93DD98DE98A0E0B0E0BC01CD010E94E1
:10351000F2311B012C012BEA3AEA4AEA50E40E94FC
:103520000A2F5B016C0120E030E040E85FE30E947D
:103530001031882314F461E054C0C601B50120E0C5
:1035400030E04FE753E40E94B03018160CF045C04D
:10355000C201B10120E030E04AE754E40E940430A7
:103560003B014C0120E030E04AE755E40E940A2F7D
:103570007B018C0120E030E040E85FE30E941031E5
:1035800088231CF461E070E024C0C801B70120E08A
:103590003FEF4FE757E40E94B0301816B4F4C4016F
:1035A000B30120E030E040E251E40E940A2F0E9483
:1035B000342D80E991E005C0FC013197F1F76150AD
:1035C000704061157105C1F70EC0C801B7010E94B6
:1035D000342DCB010197F1F706C0C601B5010E9459
:1035E000342D6A95F1F7DD9ADE98C601B50120E029
:1035F00030E040E85FE30E941031882314F461E07A
:1036000054C0C601B50120E030E04FE753E40E940A
:10361000B03018160CF045C0C201B10120E030E016
:103620004AE754E40E9404303B014C0120E030E0C2
:103630004AE755E40E940A2F7B018C0120E030E02C
:1036400040E85FE30E94103188231CF461E070E0E1
:1036500024C0C801B70120E03FEF4FE757E40E94C4
:10366000B0301816B4F4C401B30120E030E040E2F9
:1036700051E40E940A2F0E94342D80E991E005C098
:10368000FC013197F1F76150704061157105C1F788
:103690000EC0C801B7010E94342DCB010197F1F78C
:1036A00006C0C601B5010E94342D6A95F1F7DD9A76
:1036B000DE9AC601B50120E030E040E85FE30E94F9
:1036C0001031882314F461E054C0C601B50120E034
:1036D00030E04FE753E40E94B03018160CF045C0BC
:1036E000C201B10120E030E04AE754E40E94043016
:1036F0003B014C0120E030E04AE755E40E940A2FEC
:103700007B018C0120E030E040E85FE30E94103153
:1037100088231CF461E070E024C0C801B70120E0F8
:103720003FEF4FE757E40E94B0301816B4F4C401DD
:10373000B30120E030E040E251E40E940A2F0E94F1
:10374000342D80E991E005C0FC013197F1F761501B
:10375000704061157105C1F70EC0C801B7010E9424
:10376000342DCB010197F1F706C0C601B5010E94C7
:10377000342D6A95F1F7DD98DE9AC601B50120E097
:1037800030E040E85FE30E941031882314F461E0E8
:1037900054C0C601B50120E030E04FE753E40E9479
:1037A000B03018160CF045C0C201B10120E030E085
:1037B0004AE754E40E9404305B016C0120E030E0F1
:1037C0004AE755E40E940A2F7B018C0120E030E09B
:1037D00040E85FE30E94103188231CF461E070E050
:1037E00024C0C801B70120E03FEF4FE757E40E9433
:1037F000B0301816B4F4C601B50120E030E040E264
:1038000051E40E940A2F0E94342D80E991E005C006
:10381000FC013197F1F76150704061157105C1F7F6
:103820000EC0C801B7010E94342DCB010197F1F7FA
:1038300006C0C601B5010E94342D6A95F1F71F91AB
:103840000F91FF90EF90DF90CF90BF90AF909F903F
:103850008F907F906F905F904F903F902F90089542
:103860002F923F924F925F926F927F928F929F9290
:10387000AF92BF92CF92DF92EF92FF920F931F937E
:10388000DD98DE9AA0E0B0E0BC01CD010E94F231EB
:103890001B012C012BEA3AEA4AEA50E40E940A2F63
:1038A0005B016C0120E030E040E85FE30E941031F2
:1038B000882314F461E054C0C601B50120E030E073
:1038C0004FE753E40E94B03018160CF045C0C20117
:1038D000B10120E030E04AE754E40E9404303B01AB
:1038E0004C0120E030E04AE755E40E940A2F7B01BA
:1038F0008C0120E030E040E85FE30E941031882333
:103900001CF461E070E024C0C801B70120E03FEF83
:103910004FE757E40E94B0301816B4F4C401B30165
:1039200020E030E040E251E40E940A2F0E94342D52
:1039300080E991E005C0FC013197F1F761507040DA
:1039400061157105C1F70EC0C801B7010E94342D81
:10395000CB010197F1F706C0C601B5010E94342DD5
:103960006A95F1F7DD9ADE9AC601B50120E030E0F4
:1039700040E85FE30E941031882314F461E054C0F2
:10398000C601B50120E030E04FE753E40E94B030BB
:1039900018160CF045C0C201B10120E030E04AE742
:1039A00054E40E9404303B014C0120E030E04AE73F
:1039B00055E40E940A2F7B018C0120E030E040E8B2
:1039C0005FE30E94103188231CF461E070E024C0A2
:1039D000C801B70120E03FEF4FE757E40E94B03045
:1039E0001816B4F4C401B30120E030E040E251E421
:1039F0000E940A2F0E94342D80E991E005C0FC014D
:103A00003197F1F76150704061157105C1F70EC033
:103A1000C801B7010E94342DCB010197F1F706C010
:103A2000C601B5010E94342D6A95F1F7DD9ADE9842
:103A3000C601B50120E030E040E85FE30E941031AC
:103A4000882314F461E054C0C601B50120E030E0E1
:103A50004FE753E40E94B03018160CF045C0C20185
:103A6000B10120E030E04AE754E40E9404303B0119
:103A70004C0120E030E04AE755E40E940A2F7B0128
:103A80008C0120E030E040E85FE30E9410318823A1
:103A90001CF461E070E024C0C801B70120E03FEFF2
:103AA0004FE757E40E94B0301816B4F4C401B301D4
:103AB00020E030E040E251E40E940A2F0E94342DC1
:103AC00080E991E005C0FC013197F1F76150704049
:103AD00061157105C1F70EC0C801B7010E94342DF0
:103AE000CB010197F1F706C0C601B5010E94342D44
:103AF0006A95F1F7DD98DE98C601B50120E030E067
:103B000040E85FE30E941031882314F461E054C060
:103B1000C601B50120E030E04FE753E40E94B03029
:103B200018160CF045C0C201B10120E030E04AE7B0
:103B300054E40E9404305B016C0120E030E04AE76D
:103B400055E40E940A2F7B018C0120E030E040E820
:103B50005FE30E94103188231CF461E070E024C010
:103B6000C801B70120E03FEF4FE757E40E94B030B3
:103B70001816B4F4C601B50120E030E040E251E48B
:103B80000E940A2F0E94342D80E991E005C0FC01BB
:103B90003197F1F76150704061157105C1F70EC0A2
:103BA000C801B7010E94342DCB010197F1F706C07F
:103BB000C601B5010E94342D6A95F1F71F910F914E
:103BC000FF90EF90DF90CF90BF90AF909F908F903D
:103BD0007F906F905F904F903F902F9008952F921D
:103BE0003F924F925F926F927F928F929F92AF928D
:103BF000BF92CF92DF92EF92FF920F931F93DB98C9
:103C0000DC98A0E0B0E0BC01CD010E94F2311B01C4
:103C10002C012BEA3AEA4AEA50E40E940A2F5B019F
:103C20006C0120E030E040E85FE30E94103188231F
:103C300014F461E054C0C601B50120E030E04FE764
:103C400053E40E94B03018160CF045C0C201B10117
:103C500020E030E04AE754E40E9404303B014C018C
:103C600020E030E04AE755E40E940A2F7B018C01F6
:103C700020E030E040E85FE30E94103188231CF42C
:103C800061E070E024C0C801B70120E03FEF4FE7DA
:103C900057E40E94B0301816B4F4C401B30120E018
:103CA00030E040E251E40E940A2F0E94342D80E966
:103CB00091E005C0FC013197F1F76150704061154A
:103CC0007105C1F70EC0C801B7010E94342DCB01A8
:103CD0000197F1F706C0C601B5010E94342D6A951F
:103CE000F1F7DB9ADC98C601B50120E030E040E84E
:103CF0005FE30E941031882314F461E054C0C601D0
:103D0000B50120E030E04FE753E40E94B0301816D0
:103D10000CF045C0C201B10120E030E04AE754E4B4
:103D20000E9404303B014C0120E030E04AE755E4BA
:103D30000E940A2F7B018C0120E030E040E85FE325
:103D40000E94103188231CF461E070E024C0C80197
:103D5000B70120E03FEF4FE757E40E94B03018165C
:103D6000B4F4C401B30120E030E040E251E40E9429
:103D70000A2F0E94342D80E991E005C0FC013197A3
:103D8000F1F76150704061157105C1F70EC0C801AF
:103D9000B7010E94342DCB010197F1F706C0C6018F
:103DA000B5010E94342D6A95F1F7DB9ADC9AC601C1
:103DB000B50120E030E040E85FE30E941031882345
:103DC00014F461E054C0C601B50120E030E04FE7D3
:103DD00053E40E94B03018160CF045C0C201B10186
:103DE00020E030E04AE754E40E9404303B014C01FB
:103DF00020E030E04AE755E40E940A2F7B018C0165
:103E000020E030E040E85FE30E94103188231CF49A
:103E100061E070E024C0C801B70120E03FEF4FE748
:103E200057E40E94B0301816B4F4C401B30120E086
:103E300030E040E251E40E940A2F0E94342D80E9D4
:103E400091E005C0FC013197F1F7615070406115B8
:103E50007105C1F70EC0C801B7010E94342DCB0116
:103E60000197F1F706C0C601B5010E94342D6A958D
:103E7000F1F7DB98DC9AC601B50120E030E040E8BC
:103E80005FE30E941031882314F461E054C0C6013E
:103E9000B50120E030E04FE753E40E94B03018163F
:103EA0000CF045C0C201B10120E030E04AE754E423
:103EB0000E9404305B016C0120E030E04AE755E4E9
:103EC0000E940A2F7B018C0120E030E040E85FE394
:103ED0000E94103188231CF461E070E024C0C80106
:103EE000B70120E03FEF4FE757E40E94B0301816CB
:103EF000B4F4C601B50120E030E040E251E40E9494
:103F00000A2F0E94342D80E991E005C0FC01319711
:103F1000F1F76150704061157105C1F70EC0C8011D
:103F2000B7010E94342DCB010197F1F706C0C601FD
:103F3000B5010E94342D6A95F1F71F910F91FF9002
:103F4000EF90DF90CF90BF90AF909F908F907F9039
:103F50006F905F904F903F902F9008952F923F92D7
:103F60004F925F926F927F928F929F92AF92BF9289
:103F7000CF92DF92EF92FF920F931F93DB98DC9A20
:103F8000A0E0B0E0BC01CD010E94F2311B012C0188
:103F90002BEA3AEA4AEA50E40E940A2F5B016C01DC
:103FA00020E030E040E85FE30E941031882314F401
:103FB00061E054C0C601B50120E030E04FE753E4B2
:103FC0000E94B03018160CF045C0C201B10120E0CB
:103FD00030E04AE754E40E9404303B014C0120E009
:103FE00030E04AE755E40E940A2F7B018C0120E073
:103FF00030E040E85FE30E94103188231CF461E068
:1040000070E024C0C801B70120E03FEF4FE757E45C
:104010000E94B0301816B4F4C401B30120E030E0BF
:1040200040E251E40E940A2F0E94342D80E991E081
:1040300005C0FC013197F1F76150704061157105C1
:10404000C1F70EC0C801B7010E94342DCB01019702
:10405000F1F706C0C601B5010E94342D6A95F1F74B
:10406000DB9ADC9AC601B50120E030E040E85FE36E
:104070000E941031882314F461E054C0C601B501D8
:1040800020E030E04FE753E40E94B03018160CF007
:1040900045C0C201B10120E030E04AE754E40E948B
:1040A00004303B014C0120E030E04AE755E40E9437
:1040B0000A2F7B018C0120E030E040E85FE30E94A2
:1040C000103188231CF461E070E024C0C801B701FE
:1040D00020E03FEF4FE757E40E94B0301816B4F4E9
:1040E000C401B30120E030E040E251E40E940A2F15
:1040F0000E94342D80E991E005C0FC013197F1F771
:104100006150704061157105C1F70EC0C801B7015B
:104110000E94342DCB010197F1F706C0C601B5010D
:104120000E94342D6A95F1F7DB9ADC98C601B5013F
:1041300020E030E040E85FE30E941031882314F46F
:1041400061E054C0C601B50120E030E04FE753E420
:104150000E94B03018160CF045C0C201B10120E039
:1041600030E04AE754E40E9404303B014C0120E077
:1041700030E04AE755E40E940A2F7B018C0120E0E1
:1041800030E040E85FE30E94103188231CF461E0D6
:1041900070E024C0C801B70120E03FEF4FE757E4CB
:1041A0000E94B0301816B4F4C401B30120E030E02E
:1041B00040E251E40E940A2F0E94342D80E991E0F0
:1041C00005C0FC013197F1F7615070406115710530
:1041D000C1F70EC0C801B7010E94342DCB01019771
:1041E000F1F706C0C601B5010E94342D6A95F1F7BA
:1041F000DB98DC98C601B50120E030E040E85FE3E1
:104200000E941031882314F461E054C0C601B50146
:1042100020E030E04FE753E40E94B03018160CF075
:1042200045C0C201B10120E030E04AE754E40E94F9
:1042300004305B016C0120E030E04AE755E40E9465
:104240000A2F7B018C0120E030E040E85FE30E9410
:10425000103188231CF461E070E024C0C801B7016C
:1042600020E03FEF4FE757E40E94B0301816B4F457
:10427000C601B50120E030E040E251E40E940A2F7F
:104280000E94342D80E991E005C0FC013197F1F7DF
:104290006150704061157105C1F70EC0C801B701CA
:1042A0000E94342DCB010197F1F706C0C601B5017C
:1042B0000E94342D6A95F1F71F910F91FF90EF90B6
:1042C000DF90CF90BF90AF909F908F907F906F9036
:1042D0005F904F903F902F900895809168048F3C9D
:1042E00091F49091C1049093CD048091C204809385
:1042F000B9048F3D11F4D99A01C0D9989F3E11F4A9
:10430000DA9A0895DA980895BF92CF92DF92EF92E9
:10431000FF920F931F93CF93DF936C018B017A0170
:10432000BB2413C0CC0DDD1D888190E0B801A7012E
:104330000E94FC13085F1F4F003811052CF00894F1
:10434000E11CF11C00E010E0B394CB2DD0E0F601AD
:1043500001900020E9F73197EC19FD09CE17DF072E
:1043600008F3DF91CF911F910F91FF90EF90DF90B5
:10437000CF90BF90089580E690E060E070E040E06C
:1043800050E00E9484218BE690E060E070E042E023
:1043900050E00E9484218CE790E060E070E043E010
:1043A00050E00E9484218CE890E060E070E044E0FE
:1043B00050E00E9484218AE990E060E070E045E0EE
:1043C00050E00E9484210895EF92FF920F931F9373
:1043D000CF93DF930E9449198BEA90E060E070E090
:1043E00040E050E00E94842187EB90E060E070E0C4
:1043F00041E050E00E9484218EEB90E069E470E09F
:1044000041E050E00E948421C1E0D0E0E1E0EE2EE6
:10441000F12C8E010E5F1F4FCE01C09661E170E05E
:10442000A8010E94FC13FE01E659FB4F80818130F8
:1044300091F485EC90E069E570E0A8010E94842188
:104440002BB3C7010C2E02C0880F991F0A94E2F704
:10445000282B2BBB12C089EC90E069E570E0A80125
:104460000E9484212BB3C7010C2E02C0880F991F14
:104470000A94E2F7809582238BBB2196C630D10542
:1044800041F6DF91CF911F910F91FF90EF9008952A
:104490008DEC90E060E070E040E050E00E9484210C
:1044A00089ED90E060E070E041E050E00E948421FE
:1044B0008AEE90E060E070E043E050E00E948421EA
:1044C00087EF90E060E070E044E050E00E948421DB
:1044D00081E091E060E070E045E050E00E948421DE
:1044E00081E191E060E070E046E050E00E948421CC
:1044F00008958DEC90E060E070E040E050E00E94B4
:10450000842189ED90E060E070E041E050E00E949D
:1045100084218AEE90E060E070E043E050E00E9489
:10452000842187EF90E060E070E044E050E00E947A
:10453000842181E091E060E070E045E050E00E947D
:10454000842108958FE191E060E070E040E050E068
:104550000E94842189ED90E060E070E041E050E04D
:104560000E9484218BE291E060E070E043E050E043
:104570000E9484218BE391E060E070E044E050E031
:104580000E9484218AE491E060E070E045E050E020
:104590000E94842189E591E060E070E046E050E00F
:1045A0000E948421089587E691E060E070E040E099
:1045B00050E00E94842189ED90E060E070E041E0ED
:1045C00050E00E94842184E791E060E070E043E0E5
:1045D00050E00E94842180E891E060E070E044E0D7
:1045E00050E00E9484218CE891E060E070E045E0BA
:1045F00050E00E9484210895CF93DF9380E197E2F9
:1046000020E931E0F9013197F1F70197D9F784E515
:1046100098E061E00E94DA1480E197E220E931E05D
:10462000F9013197F1F70197D9F784E59CE061E052
:104630000E94DA1410927104C0E9D1E073C084E5DD
:104640009CE00E9442148CED95E0FE013197F1F759
:104650000197D9F784E590E10E9442148CED95E032
:10466000FE013197F1F70197D9F784E594E10E94B3
:1046700042148CED95E0FE013197F1F70197D9F7DF
:1046800084E598E10E9442148CED95E0FE0131979B
:10469000F1F70197D9F784E59CE10E9442148CED73
:1046A00095E0FE013197F1F70197D9F784E598E09D
:1046B0000E9442148CED95E0FE013197F1F70197CD
:1046C000D9F784E59CE10E9442148CED95E0FE014F
:1046D0003197F1F70197D9F784E598E10E944214E8
:1046E0008CED95E0FE013197F1F70197D9F784E55C
:1046F00094E10E9442148CED95E0FE013197F1F7B0
:104700000197D9F784E590E10E9442148CED95E081
:10471000FE013197F1F70197D9F7809171048F5F0E
:104720008093710480917104833008F488CF81E014
:104730000E94941584E598E061E00E94821480E173
:1047400097E220E931E0F9013197F1F70197D9F7C4
:1047500084E598E060E00E94821480E197E220E91D
:1047600031E0F9013197F1F70197D9F784E590E24B
:1047700061E00E94DA1488EA91E620E931E0F9016B
:104780003197F1F70197D9F781E00E94941580E104
:1047900097E220E931E0F9013197F1F70197D9F774
:1047A0000E94EE1288E991E060E070E043E050E0A2
:1047B0000E94842189EA91E060E070E045E050E0E9
:1047C0000E948421DF91CF91089580916904803700
:1047D00081F4EFECF4E08089819385E0EF32F80713
:1047E000D1F7119285E0EF33F807D9F780E680938F
:1047F000690488EC91E060E070E047E050E00E94DE
:1048000084218FEC94E060E070E041E050E00E9491
:10481000842108951F93CF93DF938FEF84BB88EF9C
:1048200081BB8FE78ABB87E690E00E94C62C789414
:104830000E9452120E94EE120E94FC22EFECF4E061
:10484000119285E0EF33F807D9F70E94091988EE35
:1048500093E020E931E0F9013197F1F70197D9F7B9
:104860000E942619C0E9D1E00E94E0188823E1F3F4
:104870008091BE04809368048C3039F50E94EE125A
:104880000E94491989ED91E060E070E040E050E05D
:104890000E9484218FEC94E060E070E041E050E001
:1048A0000E9484218091BF04E0916904F0E0E1530B
:1048B000FB4F80838093BD040E94F22C8091690499
:1048C0008F5F809369040E94E523809168048C3196
:1048D00081F50E94EE120E94491985EE91E060E098
:1048E00070E040E050E00E9484218FEC94E060E0B2
:1048F00070E041E050E00E9484218091BF04E0918B
:1049000069048A3229F4F0E0E153FB4F8EE203C0E0
:10491000F0E0E153FB4F80838093BD048091BD04A0
:104920000E94F22C809169048F5F809369040E9439
:10493000E523809168048C3239F50E94EE120E94C2
:10494000491981EF91E060E070E040E050E00E94A2
:1049500084218FEC94E060E070E041E050E00E9440
:1049600084218091BF04E0916904F0E0E153FB4FA2
:1049700080838093BD040E94F22C809169048F5F34
:10498000809369040E94E523809168048B30A9F428
:10499000E0916904E150E0936904F0E0E153FB4FDA
:1049A00080E2808388E00E94F22C8FEC94E060E04B
:1049B00070E041E050E00E948421809168048C3ACC
:1049C00099F40E944919EFECF4E0119285E0EF337D
:1049D000F807D9F78FEC94E060E070E041E050E038
:1049E0000E94842110926904809168048F3F31F401
:1049F0000E94EE120E9449190E94A222809168042E
:104A00008F3131F40E94EE120E9449190E947922DE
:104A1000809168048F3231F40E94EE120E9449198D
:104A20000E944822809168048A3A31F40E94EE1272
:104A30000E9449190E94D322809168048F3A09F09C
:104A40006FC00E9449198091BF0480936A0482302C
:104A5000F1F0833020F4813009F062C006C0833069
:104A600051F1843009F05CC044C00E94EE128DEF19
:104A700091E060E070E043E050E00E94842180E13A
:104A800097E2FE013197F1F70197D9F711C00E9423
:104A9000EE1288E192E060E070E043E050E00E94B6
:104AA000842180E197E2FE013197F1F70197D9F770
:104AB0000E94EE1235C00E94EE128FE392E060E099
:104AC00070E043E050E00E94842180E197E2FE0123
:104AD0003197F1F70197D9F70E94EE128BEA90E037
:104AE00060E070E040E050E00E9484210E94E421F8
:104AF00017C00E94EE1286E692E060E070E043E0AC
:104B000050E00E94842180E197E2FE013197F1F7A5
:104B10000197D9F70E94EE120E94BB210E94491909
:104B2000809168048E3A09F05CC00E944919809116
:104B3000BF0480936A048230F9F08330B9F1813088
:104B400009F04FC00E94EE128DE892E060E070E044
:104B500043E050E00E9484218EE992E060E070E042
:104B600045E050E00E94842180E29EE4FE013197FE
:104B7000F1F70197D9F733C00E94EE128BEB92E068
:104B800060E070E043E050E00E9484218EE992E012
:104B900060E070E045E050E00E94842180E29EE405
:104BA000FE013197F1F70197D9F719C00E94EE1273
:104BB0008BEC92E060E070E043E050E00E948421E2
:104BC0008EE992E060E070E045E050E00E948421D0
:104BD00080E29EE4FE013197F1F70197D9F70E9438
:104BE000EE12809168048F3B09F04EC00E94491973
:104BF0008091BF0480936A04823091F0833020F466
:104C0000813009F041C005C08330F9F08430E1F50E
:104C100023C00E94EE120E94491989ED91E006C05E
:104C20000E94EE120E94491985EE91E060E070E06A
:104C300040E050E00E9484218FEC94E060E070E05E
:104C400041E050E00E9484211FC00E94EE120E94A9
:104C5000491981EF91E0EACF0E94EE120E944919B2
:104C600089ED92E060E070E040E050E00E94842135
:104C70008FEC94E060E070E041E050E00E9484211D
:104C800085EE92E00E94042D809168048A3109F03B
:104C9000AAC00E9449190E94E421D8981091BF042B
:104CA000133009F448C0143030F4113059F0123088
:104CB00009F099C023C0143009F45AC0153009F026
:104CC00092C073C089EE92E061E170E043E050E091
:104CD0000E94842180916B04882331F4D99A109327
:104CE0006B0485EC90E005C0D99810926B0489ECB8
:104CF00090E069E570E043E050E073C08BEE92E035
:104D000061E170E044E050E00E94842180916C04F5
:104D1000882339F4DA9A81E080936C0485EC90E082
:104D200005C0DA9810926C0489EC90E069E570E0B7
:104D300044E050E056C08DEE92E061E170E045E065
:104D400050E00E94842180916D04882339F4DB9A1D
:104D500081E080936D0485EC90E005C0DB981092B3
:104D60006D0489EC90E069E570E045E050E039C001
:104D70008FEE92E061E170E046E050E00E94842115
:104D800080916E04882339F4DC9A81E080936E046C
:104D900085EC90E005C0DC9810926E0489EC90E000
:104DA00069E570E046E050E01CC081EF92E061E10F
:104DB00070E047E050E00E94842180916F048823D6
:104DC00039F4DD9A81E080936F0485EC90E005C0B2
:104DD000DD9810926F0489EC90E069E570E047E09F
:104DE00050E00E948421809168048F3C09F074C0D7
:104DF0006EC00E94E0188130C1F48091BE0480939F
:104E000068048091BF048093BA041092BB0480911F
:104E1000C0048093C3041092C4048091C1048093A1
:104E2000CD048091C2048093B9040E946D218091C9
:104E3000BA049091BB04019721F480E797E10E94A6
:104E4000EF1D8091BA049091BB04029721F488EE83
:104E500093E00E94EF1D8091BA049091BB040397E8
:104E600021F480E797E10E94AE1F8091BA049091EF
:104E7000BB04049721F488EE93E00E94AE1F80915A
:104E8000C3049091C404019721F480E797E10E9444
:104E9000301C8091C3049091C404029721F488EEE1
:104EA00093E00E94301C8091C3049091C404039746
:104EB00021F480E797E10E94711A8091C3049091D8
:104EC000C404049721F488EE93E00E94711A809143
:104ED00068048F3C09F48DCF809168048B3111F008
:104EE0008B3211F58091BF048B3B99F08C3B18F409
:104EF0008B3A91F405C08B3C31F08B3D69F406C0D0
:104F000083EF92E00BC08CEF92E008C085E093E065
:104F100005C08EE093E002C087E193E060E070E0BE
:104F200047E050E00E948421809168048B3909F0A9
:104F30009BCC8091BF048B3269F08C3218F48B319A
:104F400009F505C08B3349F08B34E1F40BC080E2E6
:104F500093E005C089E293E002C082E393E061E45C
:104F600070E023C08BE393E060E070E047E050E046
:104F70000E94842180E29EE4FE013197F1F70197BF
:104F8000D9F772CC8CE493E060E070E047E050E049
:104F90000E94842180E197E2FE013197F1F70197A9
:104FA000D9F788EC91E060E070E047E050E00E94C3
:104FB00084215ACC2F923F924F925F926F927F92B0
:104FC0008F929F92AF92BF92CF92DF92EF92FF9219
:104FD0000F931F93DF93CF9300D000D000D0CDB7B5
:104FE000DEB76C013B015A014901202E3E2C84178B
:104FF000950719F580E090E00E94F2317B018C0169
:10500000B40180E090E00E94F2319B01AC01C80144
:10501000B7010E94B6340E94342DA40146195709E5
:1050200057FF03C0509541955F4F4F5F5F4FC601DB
:10503000222D032D0E949413E7C06217730721F5F8
:10504000BC0180E090E00E94F2317B018C01B5014F
:1050500080E090E00E94F2319B01AC01C801B701F1
:105060000E94B6340E94342DCB01A5014C195D0974
:1050700057FF03C0509541955F4F4F5FB301222DFD
:10508000032D0E946D13C0C04817590738F46501FD
:10509000390130E0932F5C01862F4C01B401661971
:1050A0007709882777FD8095982F0E9440317B01F2
:1050B0008C01B5016C197D0980E090E00E94F2310D
:1050C0009B01AC01C801B7010E94043069837A8357
:1050D0008B839C83B60180E090E00E94F2319B01BB
:1050E000AC0169817A818B819C810E940A2F7B01AE
:1050F0008C01B30180E090E00E94F231A801970199
:105100000E94AC2E2B013C01C801B701A301920102
:105110000E94DD2E0E94342D162FFC2CF394062FB6
:1051200066C02D813E81B901882777FD8095982F33
:105130000E9440319B01AC0169817A818B819C8105
:105140000E940A2FA30192010E94DD2E20E030E090
:1051500040E05FE30E94DD2E0E94342DE62E862F74
:10516000801B823064F0402F50E0409550954E0DEA
:10517000511D8D819E8101970F5F602F0FC0802F81
:105180008E19823084F06E2D6F5F402F50E04150B9
:1051900050404E1951098D819E81019770E0222D5A
:1051A000032D0E9494138D819E818A159B0561F4C5
:1051B0001E1579F44D814C19C601612F70E020E075
:1051C000032D0E946D1302C01E1519F4DE82CD82DC
:1051D0000AC04F2D4C19C601612F70E020E0032D4D
:1051E0000E946D131E2DF3940E2DCD80DE80EF2DC9
:1051F000F0E0FE83ED83AE16BF0608F092CFC50146
:10520000B401432D0E94191326960FB6F894DEBF01
:105210000FBECDBFCF91DF911F910F91FF90EF9007
:10522000DF90CF90BF90AF909F908F907F906F90C6
:105230005F904F903F902F9008952F923F924F9202
:105240005F926F927F928F929F92AF92BF92CF9216
:10525000DF92EF92FF920F931F932C013B011A01F3
:105260004901102FDE2C402F50E02E2D0C2D0E94D6
:105270009413A12EBB240894811C911C7401EA187C
:10528000FB08089481089108C101B701412F50E043
:105290002D2D0E949413C201B301A10197010D2D80
:1052A000EC2C0E94DA27089461087108A60CB71C40
:1052B000C201B501A10194010E94DA271F910F914B
:1052C000FF90EF90DF90CF90BF90AF909F908F9026
:1052D0007F906F905F904F903F902F9008952F9206
:1052E0003F924F925F926F927F928F929F92AF9276
:1052F000BF92CF92DF92EF92FF920F931F93DF93B3
:10530000CF93CDB7DEB729970FB6F894DEBF0FBEA7
:10531000CDBF9C838B832B015E834D8319010F834B
:10532000F986E88636011F8DF8A0E12ECF2C0E9469
:105330001D2988859985B301A50194010E8D0E94D0
:105340001D298B819C81B201488559859301012FCC
:10535000EF2C0E94DA278D819E81B101A501940175
:105360000E94DA278F81C82EDD249E8D892F90E040
:105370009A8389830894410851084C0C5D1C089459
:1053800061087108680E791E8B819C81B201488585
:10539000598593010E94DA270894211C311C2C188E
:1053A0003D080894811C911C89819A81881A990A68
:1053B0008D819E81B101A50194010E94DA27299671
:1053C0000FB6F894DEBF0FBECDBFCF91DF911F9116
:1053D0000F91FF90EF90DF90CF90BF90AF909F9094
:1053E0008F907F906F905F904F903F902F90089597
:1053F0002F923F924F925F926F927F928F929F92E5
:10540000AF92BF92CF92DF92EF92FF920F931F93D2
:105410004C013B015A012901102FDE2C402F2E2D6B
:105420000C2D0E946D13212E33240894A11CB11C55
:105430007501E218F3080894A108B108C701B20188
:10544000412F2D2D0E946D13C401B301A7019201BC
:105450000D2DEC2C0E94DA27089481089108C401D4
:10546000820D931DB301A50192010E94DA271F91BD
:105470000F91FF90EF90DF90CF90BF90AF909F90F3
:105480008F907F906F905F904F903F902F900895F6
:105490002F923F924F925F926F927F928F929F9244
:1054A000AF92BF92CF92DF92EF92FF920F931F9332
:1054B000DF93CF93CDB7DEB728970FB6F894DEBF52
:1054C0000FBECDBF2C017A8369835C834B833E83FF
:1054D0002D83302E3701D886CF822D8C1E8DFF8CE8
:1054E000E12ECF2C0E94F829C3016F817885A50198
:1054F0009401022D0E94F829C20169817A81A301D9
:105500002F813885012FEF2C0E94DA278B819C8117
:105510006D817E81A50194010E94DA27C32CDD24D0
:105520003324089441085108089461087108620CFA
:10553000731CC2018C0D9D1D69817A81A3012F818D
:1055400038850E94DA278B819C8101969C838B830E
:105550000894A11CB11CA218B3088C199D096D8177
:105560007E81A50194010E94DA2728960FB6F8944F
:10557000DEBF0FBECDBFCF91DF911F910F91FF9086
:10558000EF90DF90CF90BF90AF909F908F907F90E3
:105590006F905F904F903F902F9008952F923F9281
:1055A0004F925F926F927F928F92AF92BF92CF9203
:1055B000DF92EF92FF920F931F93DF93CF9300D070
:1055C00000D000D0CDB7DEB79A8389832B015C83EE
:1055D0004B833E832D83180137011A8D082DE12E50
:1055E0000E94BB13C101B301A60195010E94BB1328
:1055F00089819A81B201A10193010E94DA278B81EE
:105600009C81B201A60193010E94DA2789819A81C7
:105610006D817E81A10195010E94DA278B819C8199
:105620006D817E81A60195010E94DA2726960FB62C
:10563000F894DEBF0FBECDBFCF91DF911F910F91C8
:10564000FF90EF90DF90CF90BF90AF908F907F90C2
:105650006F905F904F903F902F9008952F923F92C0
:105660004F925F926F928F929F92AF92BF92CF9222
:10567000DF92EF92FF920F931F93DF93CF93CDB7FB
:10568000DEB769970FB6F894DEBF0FBECDBF9B871C
:105690008A877D876C875F874E87622E402EAE8417
:1056A000449F9001459F300D549F300D1124398740
:1056B00028871982CB01A0E0B0E08C8B9D8BAE8B4C
:1056C000BF8BC0C0889CC001899C900D989C900D98
:1056D000112468857985681B790B80E090E00E9431
:1056E000F2310E94D9340E94342D562E2A843B84F4
:1056F000280C391C062F10E0CC84DD84C00ED11E8E
:10570000C101B601442D0E941913EC84FD84E01AF6
:10571000F10AC101B701442D0E941913EA85FB85E6
:10572000E819F909FF83EE83CF01B601442D0E94E9
:1057300019138E819F81B701442D0E9419132A2DC0
:1057400030E0201B310B398F288F37FF05C0309593
:1057500021953F4F398F288F888D998D02970CF4B2
:105760006DC00894210831086C897D898E899F89D4
:105770000E94F2316A837B838C839D836A2D70E063
:1057800080E090E00E94F2314B015C01652D70E0F9
:1057900080E090E00E94F2316B017C01C501B40110
:1057A000A70196010E94B6349B01AC016A817B81FE
:1057B0008C819D810E94DD2E20E030E040E85FE397
:1057C0000E94DD2E0E94342D688B798B8A8B9B8BF7
:1057D000C10168897989488D598D262D042D0E9433
:1057E0009413C501B401A70196010E9497349B014F
:1057F000AC016A817B818C819D810E94AC2E0E94CC
:10580000342D5B016C01C101B501488D598D262DE8
:105810000E949413EE80FF800894E11CF11CC701E4
:1058200068897989488D598D262D0E949413C70166
:10583000B501488D598D262D0E94941399819F5F43
:105840009983A52CA9818A2E9924EE85FF858E1631
:105850009F0608F437CF2A853B85215030403B878F
:105860002A877901E80CF91CC7016C857D85452DD7
:1058700050E0262D042D0E949413CC84DD84C5189D
:10588000D108C701B601452D50E0262D0E94941382
:10589000EA84FB8482E090E0E80EF91EE818F9083B
:1058A000C7016C857D85452D50E0262D0E949413FF
:1058B000C701B601452D50E0262D0E94941369962C
:1058C0000FB6F894DEBF0FBECDBFCF91DF911F9111
:1058D0000F91FF90EF90DF90CF90BF90AF909F908F
:1058E0008F906F905F904F903F902F9008951F92F0
:1058F0000F920FB60F9211242F938F939F93EF93D4
:10590000FF939BB12CB1E091B404EF5FEF718091F4
:10591000B504E81711F482E008C0892F8871E0937C
:10592000B404F0E0EE56FB4F20838093B604FF9161
:10593000EF919F918F912F910F900FBE0F901F901D
:1059400018951F920F920FB60F9211248F939F9369
:10595000EF93FF939091B2048091B304981761F094
:10596000E091B304EF5FEF71E093B304F0E0EE5821
:10597000FB4F80818CB901C05598FF91EF919F91A9
:105980008F910F900FBE0F901F9018959C01109251
:10599000B2041092B3041092B4041092B50497FFAD
:1059A00003C082E08BB93F7730BD29B988E98AB955
:1059B00086E880BD08959091B4048091B50498174D
:1059C00019F420E031E00CC0E091B504EF5FEF7115
:1059D000E093B504F0E0EE56FB4F8081282F30E0D5
:1059E000C9010895282F9091B2049F5F9F71809103
:1059F000B3049817E1F3E92FF0E0EE58FB4F208352
:105A00009093B204559A0895DC0111C09091B204AC
:105A10009F5F9F718091B3049817E1F31196E92F6E
:105A2000F0E0EE58FB4F20839093B204559A2C91EE
:105A3000222361F70895AC0110C02091B2042F5FBA
:105A40002F718091B3042817E1F3E22FF0E0EE58B4
:105A5000FB4F90832093B204559AFA014F5F5F4F3A
:105A60009491992351F70895EF92FF920F931F930A
:105A70007B018C0120E030E040E05FE40E94E030F8
:105A800088238CF0C801B70120E030E040E05FE4FB
:105A90000E94AC2E0E949E319B01AC0120503040F0
:105AA0004040504806C0C801B7010E949E319B018A
:105AB000AC01B901CA011F910F91FF90EF900895B9
:105AC000A0E0B0E0E6E6FDE20C946034DC012B01DE
:105AD000FA019C91923008F439C1EB01888182303F
